{
  "_format": "hh-sol-artifact-1",
  "contractName": "CBDNFTMarketplace",
  "sourceName": "src/CBDNFTMarketplace.sol",
  "abi": [
    {
      "inputs": [
        {
          "internalType": "uint256",
          "name": "_platformFee",
          "type": "uint256"
        },
        {
          "internalType": "address",
          "name": "_feeRecipient",
          "type": "address"
        },
        {
          "internalType": "contract ICBDNFTFactory",
          "name": "CBDNFTFactory_",
          "type": "address"
        }
      ],
      "stateMutability": "nonpayable",
      "type": "constructor"
    },
    {
      "anonymous": false,
      "inputs": [
        {
          "indexed": true,
          "internalType": "address",
          "name": "nft",
          "type": "address"
        },
        {
          "indexed": true,
          "internalType": "uint256",
          "name": "tokenId",
          "type": "uint256"
        },
        {
          "indexed": false,
          "internalType": "address",
          "name": "payToken",
          "type": "address"
        },
        {
          "indexed": false,
          "internalType": "uint256",
          "name": "price",
          "type": "uint256"
        },
        {
          "indexed": false,
          "internalType": "address",
          "name": "seller",
          "type": "address"
        },
        {
          "indexed": true,
          "internalType": "address",
          "name": "buyer",
          "type": "address"
        }
      ],
      "name": "BoughtItem",
      "type": "event"
    },
    {
      "anonymous": false,
      "inputs": [
        {
          "indexed": true,
          "internalType": "address",
          "name": "nft",
          "type": "address"
        },
        {
          "indexed": true,
          "internalType": "uint256",
          "name": "tokenId",
          "type": "uint256"
        },
        {
          "indexed": true,
          "internalType": "address",
          "name": "seller",
          "type": "address"
        }
      ],
      "name": "CanceledItem",
      "type": "event"
    },
    {
      "anonymous": false,
      "inputs": [
        {
          "indexed": true,
          "internalType": "address",
          "name": "nft",
          "type": "address"
        },
        {
          "indexed": true,
          "internalType": "uint256",
          "name": "tokenId",
          "type": "uint256"
        },
        {
          "indexed": false,
          "internalType": "address",
          "name": "payToken",
          "type": "address"
        },
        {
          "indexed": false,
          "internalType": "uint256",
          "name": "price",
          "type": "uint256"
        },
        {
          "indexed": true,
          "internalType": "address",
          "name": "seller",
          "type": "address"
        }
      ],
      "name": "ListedItem",
      "type": "event"
    },
    {
      "anonymous": false,
      "inputs": [
        {
          "indexed": true,
          "internalType": "address",
          "name": "previousOwner",
          "type": "address"
        },
        {
          "indexed": true,
          "internalType": "address",
          "name": "newOwner",
          "type": "address"
        }
      ],
      "name": "OwnershipTransferred",
      "type": "event"
    },
    {
      "anonymous": false,
      "inputs": [
        {
          "indexed": true,
          "internalType": "address",
          "name": "collection",
          "type": "address"
        },
        {
          "indexed": true,
          "internalType": "address",
          "name": "seller",
          "type": "address"
        },
        {
          "indexed": true,
          "internalType": "uint256",
          "name": "tokenId",
          "type": "uint256"
        },
        {
          "indexed": false,
          "internalType": "uint256",
          "name": "itemPrice",
          "type": "uint256"
        }
      ],
      "name": "UpdatedItem",
      "type": "event"
    },
    {
      "inputs": [],
      "name": "CBDT",
      "outputs": [
        {
          "internalType": "contract IERC20",
          "name": "",
          "type": "address"
        }
      ],
      "stateMutability": "view",
      "type": "function"
    },
    {
      "inputs": [],
      "name": "CBDTPriceForUSDT",
      "outputs": [
        {
          "internalType": "uint256",
          "name": "",
          "type": "uint256"
        }
      ],
      "stateMutability": "view",
      "type": "function"
    },
    {
      "inputs": [],
      "name": "USDT",
      "outputs": [
        {
          "internalType": "contract IERC20",
          "name": "",
          "type": "address"
        }
      ],
      "stateMutability": "view",
      "type": "function"
    },
    {
      "inputs": [
        {
          "internalType": "address",
          "name": "_token",
          "type": "address"
        }
      ],
      "name": "addPayableToken",
      "outputs": [],
      "stateMutability": "nonpayable",
      "type": "function"
    },
    {
      "inputs": [
        {
          "internalType": "address",
          "name": "adr",
          "type": "address"
        }
      ],
      "name": "authorize",
      "outputs": [],
      "stateMutability": "nonpayable",
      "type": "function"
    },
    {
      "inputs": [
        {
          "internalType": "address",
          "name": "_collection",
          "type": "address"
        },
        {
          "internalType": "uint256",
          "name": "_tokenId",
          "type": "uint256"
        },
        {
          "internalType": "address",
          "name": "_referralAccount",
          "type": "address"
        }
      ],
      "name": "buyItem",
      "outputs": [],
      "stateMutability": "nonpayable",
      "type": "function"
    },
    {
      "inputs": [
        {
          "internalType": "uint256",
          "name": "_price",
          "type": "uint256"
        }
      ],
      "name": "calculatePlatformFee",
      "outputs": [
        {
          "internalType": "uint256",
          "name": "",
          "type": "uint256"
        }
      ],
      "stateMutability": "view",
      "type": "function"
    },
    {
      "inputs": [
        {
          "internalType": "address",
          "name": "_collection",
          "type": "address"
        },
        {
          "internalType": "uint256",
          "name": "_tokenId",
          "type": "uint256"
        }
      ],
      "name": "cancelItemOrder",
      "outputs": [],
      "stateMutability": "nonpayable",
      "type": "function"
    },
    {
      "inputs": [
        {
          "internalType": "address",
          "name": "_payableToken",
          "type": "address"
        }
      ],
      "name": "checkIsPayableToken",
      "outputs": [
        {
          "internalType": "bool",
          "name": "",
          "type": "bool"
        }
      ],
      "stateMutability": "view",
      "type": "function"
    },
    {
      "inputs": [],
      "name": "claim",
      "outputs": [],
      "stateMutability": "nonpayable",
      "type": "function"
    },
    {
      "inputs": [
        {
          "internalType": "uint256",
          "name": "",
          "type": "uint256"
        },
        {
          "internalType": "address",
          "name": "",
          "type": "address"
        }
      ],
      "name": "claimAmount",
      "outputs": [
        {
          "internalType": "uint256",
          "name": "",
          "type": "uint256"
        }
      ],
      "stateMutability": "view",
      "type": "function"
    },
    {
      "inputs": [],
      "name": "claimCount",
      "outputs": [
        {
          "internalType": "uint256",
          "name": "_value",
          "type": "uint256"
        }
      ],
      "stateMutability": "view",
      "type": "function"
    },
    {
      "inputs": [
        {
          "internalType": "address",
          "name": "",
          "type": "address"
        },
        {
          "internalType": "uint256",
          "name": "",
          "type": "uint256"
        }
      ],
      "name": "claimedCount",
      "outputs": [
        {
          "internalType": "uint256",
          "name": "",
          "type": "uint256"
        }
      ],
      "stateMutability": "view",
      "type": "function"
    },
    {
      "inputs": [
        {
          "internalType": "address",
          "name": "_collection",
          "type": "address"
        },
        {
          "internalType": "uint256",
          "name": "_tokenId",
          "type": "uint256"
        },
        {
          "internalType": "address",
          "name": "_payToken",
          "type": "address"
        },
        {
          "internalType": "uint256",
          "name": "_price",
          "type": "uint256"
        }
      ],
      "name": "createItemOrder",
      "outputs": [],
      "stateMutability": "nonpayable",
      "type": "function"
    },
    {
      "inputs": [],
      "name": "decrementClaimCount",
      "outputs": [],
      "stateMutability": "nonpayable",
      "type": "function"
    },
    {
      "inputs": [],
      "name": "divider",
      "outputs": [
        {
          "internalType": "uint256",
          "name": "",
          "type": "uint256"
        }
      ],
      "stateMutability": "view",
      "type": "function"
    },
    {
      "inputs": [
        {
          "internalType": "address",
          "name": "_account",
          "type": "address"
        }
      ],
      "name": "getClaimAmount",
      "outputs": [
        {
          "internalType": "uint256",
          "name": "",
          "type": "uint256"
        }
      ],
      "stateMutability": "view",
      "type": "function"
    },
    {
      "inputs": [
        {
          "internalType": "address",
          "name": "_collection",
          "type": "address"
        }
      ],
      "name": "getItemList",
      "outputs": [
        {
          "components": [
            {
              "internalType": "uint256",
              "name": "tokenId",
              "type": "uint256"
            },
            {
              "internalType": "address",
              "name": "seller",
              "type": "address"
            },
            {
              "internalType": "address",
              "name": "payToken",
              "type": "address"
            },
            {
              "internalType": "uint256",
              "name": "price",
              "type": "uint256"
            },
            {
              "internalType": "uint256",
              "name": "createdAt",
              "type": "uint256"
            },
            {
              "internalType": "bool",
              "name": "sold",
              "type": "bool"
            }
          ],
          "internalType": "struct CBDNFTMarketplace.Item[]",
          "name": "",
          "type": "tuple[]"
        }
      ],
      "stateMutability": "view",
      "type": "function"
    },
    {
      "inputs": [
        {
          "internalType": "address",
          "name": "_collection",
          "type": "address"
        },
        {
          "internalType": "address",
          "name": "_account",
          "type": "address"
        }
      ],
      "name": "getItemListOfOwner",
      "outputs": [
        {
          "components": [
            {
              "internalType": "uint256",
              "name": "tokenId",
              "type": "uint256"
            },
            {
              "internalType": "address",
              "name": "seller",
              "type": "address"
            },
            {
              "internalType": "address",
              "name": "payToken",
              "type": "address"
            },
            {
              "internalType": "uint256",
              "name": "price",
              "type": "uint256"
            },
            {
              "internalType": "uint256",
              "name": "createdAt",
              "type": "uint256"
            },
            {
              "internalType": "bool",
              "name": "sold",
              "type": "bool"
            }
          ],
          "internalType": "struct CBDNFTMarketplace.Item[]",
          "name": "",
          "type": "tuple[]"
        }
      ],
      "stateMutability": "view",
      "type": "function"
    },
    {
      "inputs": [],
      "name": "getPayableTokens",
      "outputs": [
        {
          "internalType": "address[]",
          "name": "",
          "type": "address[]"
        }
      ],
      "stateMutability": "view",
      "type": "function"
    },
    {
      "inputs": [],
      "name": "incrementClaimCount",
      "outputs": [],
      "stateMutability": "nonpayable",
      "type": "function"
    },
    {
      "inputs": [
        {
          "internalType": "address",
          "name": "adr",
          "type": "address"
        }
      ],
      "name": "isAuthorized",
      "outputs": [
        {
          "internalType": "bool",
          "name": "",
          "type": "bool"
        }
      ],
      "stateMutability": "view",
      "type": "function"
    },
    {
      "inputs": [
        {
          "internalType": "address",
          "name": "account",
          "type": "address"
        }
      ],
      "name": "isOwner",
      "outputs": [
        {
          "internalType": "bool",
          "name": "",
          "type": "bool"
        }
      ],
      "stateMutability": "view",
      "type": "function"
    },
    {
      "inputs": [
        {
          "internalType": "address",
          "name": "",
          "type": "address"
        },
        {
          "internalType": "uint256",
          "name": "",
          "type": "uint256"
        }
      ],
      "name": "itemDetails",
      "outputs": [
        {
          "internalType": "uint256",
          "name": "tokenId",
          "type": "uint256"
        },
        {
          "internalType": "address",
          "name": "seller",
          "type": "address"
        },
        {
          "internalType": "address",
          "name": "payToken",
          "type": "address"
        },
        {
          "internalType": "uint256",
          "name": "price",
          "type": "uint256"
        },
        {
          "internalType": "uint256",
          "name": "createdAt",
          "type": "uint256"
        },
        {
          "internalType": "bool",
          "name": "sold",
          "type": "bool"
        }
      ],
      "stateMutability": "view",
      "type": "function"
    },
    {
      "inputs": [
        {
          "internalType": "address",
          "name": "_collection",
          "type": "address"
        },
        {
          "internalType": "uint256",
          "name": "_tokenId",
          "type": "uint256"
        },
        {
          "internalType": "uint256",
          "name": "_newPrice",
          "type": "uint256"
        }
      ],
      "name": "modifyItemOrder",
      "outputs": [],
      "stateMutability": "nonpayable",
      "type": "function"
    },
    {
      "inputs": [],
      "name": "owner",
      "outputs": [
        {
          "internalType": "address",
          "name": "",
          "type": "address"
        }
      ],
      "stateMutability": "view",
      "type": "function"
    },
    {
      "inputs": [
        {
          "internalType": "address",
          "name": "_CBDT",
          "type": "address"
        }
      ],
      "name": "setCBDT",
      "outputs": [],
      "stateMutability": "nonpayable",
      "type": "function"
    },
    {
      "inputs": [
        {
          "internalType": "uint256",
          "name": "_newPrice",
          "type": "uint256"
        }
      ],
      "name": "setCBDTPriceForUSDT",
      "outputs": [],
      "stateMutability": "nonpayable",
      "type": "function"
    },
    {
      "inputs": [
        {
          "internalType": "uint256",
          "name": "_level",
          "type": "uint256"
        },
        {
          "internalType": "address",
          "name": "_collection",
          "type": "address"
        },
        {
          "internalType": "uint256",
          "name": "_amount",
          "type": "uint256"
        }
      ],
      "name": "setClaimAmount",
      "outputs": [],
      "stateMutability": "nonpayable",
      "type": "function"
    },
    {
      "inputs": [
        {
          "internalType": "address",
          "name": "_feeRecipient",
          "type": "address"
        }
      ],
      "name": "setFeeRecipient",
      "outputs": [],
      "stateMutability": "nonpayable",
      "type": "function"
    },
    {
      "inputs": [
        {
          "internalType": "address",
          "name": "_referalAddr",
          "type": "address"
        }
      ],
      "name": "setReferral",
      "outputs": [],
      "stateMutability": "nonpayable",
      "type": "function"
    },
    {
      "inputs": [
        {
          "internalType": "address",
          "name": "_USDT",
          "type": "address"
        }
      ],
      "name": "setUSDT",
      "outputs": [],
      "stateMutability": "nonpayable",
      "type": "function"
    },
    {
      "inputs": [
        {
          "internalType": "uint256",
          "name": "_amount",
          "type": "uint256"
        }
      ],
      "name": "swapCBDTForUSDT",
      "outputs": [],
      "stateMutability": "nonpayable",
      "type": "function"
    },
    {
      "inputs": [
        {
          "internalType": "address payable",
          "name": "adr",
          "type": "address"
        }
      ],
      "name": "transferOwnership",
      "outputs": [],
      "stateMutability": "nonpayable",
      "type": "function"
    },
    {
      "inputs": [
        {
          "internalType": "address",
          "name": "adr",
          "type": "address"
        }
      ],
      "name": "unauthorize",
      "outputs": [],
      "stateMutability": "nonpayable",
      "type": "function"
    },
    {
      "inputs": [
        {
          "internalType": "uint256",
          "name": "_platformFee",
          "type": "uint256"
        }
      ],
      "name": "updatePlatformFee",
      "outputs": [],
      "stateMutability": "nonpayable",
      "type": "function"
    }
  ],
  "bytecode": "0x60a06040526127106006553480156200001757600080fd5b50604051620030cf380380620030cf8339810160408190526200003a916200011c565b600080546001600160a01b031916339081178255604051909182917f8be0079c531659141344cd1fd0a4f28419497f9722a3daafe3b4186f6b6457e0908290a3506001600255612710831115620000d75760405162461bcd60e51b815260206004820152601a60248201527f63616e2774206d6f7265207468616e2031302070657263656e74000000000000604482015260640160405180910390fd5b600492909255600580546001600160a01b0319166001600160a01b039283161790551660805262000164565b6001600160a01b03811681146200011957600080fd5b50565b6000806000606084860312156200013257600080fd5b835192506020840151620001468162000103565b6040850151909250620001598162000103565b809150509250925092565b608051612f416200018e6000396000818161148401528181611cd701526122040152612f416000f3fe608060405234801561001057600080fd5b506004361061021c5760003560e01c80638da4d3c911610125578063c8073830116100ad578063dde070e81161007c578063dde070e814610558578063e74b981b1461056b578063f0b37c041461057e578063f2fde38b14610591578063fe9fbb80146105a457600080fd5b8063c8073830146104ff578063cb24d0a914610512578063d423881414610525578063d643315c1461055057600080fd5b8063aa0b5988116100f4578063aa0b5988146104ab578063b1629f21146104be578063b6a5d7de146104d1578063bfbc422c146104e4578063c54e44eb146104ec57600080fd5b80638da4d3c9146104515780638da5cb5b1461045b5780639d8f4f551461046c5780639e5914da1461049857600080fd5b80634222da47116101a857806350c1b9231161017757806350c1b923146103e257806350e3e31d146103f55780635b5b3314146103fe5780636f876f731461041357806381ceb6101461042657600080fd5b80634222da47146103a157806344c3d978146103b45780634e71d92d146103c75780634fdae1f4146103cf57600080fd5b806322af4285116101ef57806322af428514610320578063259ca365146103405780632f54bf6e14610353578063364bf6e514610385578063378efa371461039857600080fd5b8063069ea362146102215780630a0acadc146102bf5780630cbab4f7146102f8578063132013851461030b575b600080fd5b61027f61022f366004612968565b600f60209081526000928352604080842090915290825290208054600182015460028301546003840154600485015460059095015493946001600160a01b03938416949290931692909160ff1686565b604080519687526001600160a01b039586166020880152939094169285019290925260608401526080830152151560a082015260c0015b60405180910390f35b6102ea6102cd366004612968565b600b60209081526000928352604080842090915290825290205481565b6040519081526020016102b6565b6102ea610306366004612994565b6105d0565b61031e6103193660046129ad565b6105f3565b005b61033361032e3660046129ca565b610733565b6040516102b69190612a03565b61031e61034e366004612a89565b6108a8565b6103756103613660046129ad565b6000546001600160a01b0391821691161490565b60405190151581526020016102b6565b6103336103933660046129ad565b610f70565b6102ea60065481565b61031e6103af366004612acb565b61111b565b61031e6103c2366004612994565b611234565b61031e611480565b61031e6103dd366004612968565b611893565b61031e6103f03660046129ad565b611aec565b6102ea600c5481565b610406611b38565b6040516102b69190612b00565b61031e610421366004612b4d565b611b9a565b600754610439906001600160a01b031681565b6040516001600160a01b0390911681526020016102b6565b6009546102ea9081565b6000546001600160a01b0316610439565b61037561047a3660046129ad565b6001600160a01b03166000908152600d602052604090205460ff1690565b61031e6104a63660046129ad565b611bea565b61031e6104b9366004612994565b611c36565b61031e6104cc366004612b85565b611cb7565b61031e6104df3660046129ad565b6120c5565b61031e612116565b600854610439906001600160a01b031681565b61031e61050d3660046129ad565b61214c565b61031e610520366004612994565b612198565b6102ea610533366004612bcd565b600a60209081526000928352604080842090915290825290205481565b61031e6121c7565b6102ea6105663660046129ad565b6121ff565b61031e6105793660046129ad565b61251f565b61031e61058c3660046129ad565b6125b6565b61031e61059f3660046129ad565b612601565b6103756105b23660046129ad565b6001600160a01b031660009081526001602052604090205460ff1690565b6000600654600454836105e39190612c08565b6105ed9190612c27565b92915050565b6000546001600160a01b031633146106265760405162461bcd60e51b815260040161061d90612c49565b60405180910390fd5b6001600160a01b03811661066c5760405162461bcd60e51b815260206004820152600d60248201526c34b73b30b634b2103a37b5b2b760991b604482015260640161061d565b6001600160a01b0381166000908152600d602052604090205460ff16156106cd5760405162461bcd60e51b815260206004820152601560248201527430b63932b0b23c903830bcb0b13632903a37b5b2b760591b604482015260640161061d565b6001600160a01b03166000818152600d60205260408120805460ff19166001908117909155600e805491820181559091527fbb7b4a454dc3493923482f07822329ed19e8244eff582cc204f8554c3620c3fd0180546001600160a01b0319169091179055565b6001600160a01b0380821660009081526010602090815260408083209386168352929052908120606091906107679061269b565b905060008167ffffffffffffffff81111561078457610784612c69565b6040519080825280602002602001820160405280156107bd57816020015b6107aa612906565b8152602001906001900390816107a25790505b50905060005b8281101561089f576001600160a01b038087166000818152600f60209081526040808320948a1683526010825280832093835292905290812061080690846126a5565b81526020808201929092526040908101600020815160c0810183528154815260018201546001600160a01b039081169482019490945260028201549093169183019190915260038101546060830152600481015460808301526005015460ff16151560a0820152825183908390811061088157610881612c7f565b6020026020010181905250808061089790612c95565b9150506107c3565b50949350505050565b6001600160a01b038084166000908152600f60209081526040808320868452825291829020825160c0810184528154815260018201548516928101839052600282015490941692840192909252600382015460608401526004820154608084015260059091015460ff16151560a0830152849184911580159061092d57508060a00151155b6109665760405162461bcd60e51b815260206004820152600a6024820152691b9bdd081b1a5cdd195960b21b604482015260640161061d565b6001600160a01b0386166000908152600f602090815260408083208884529091529020600581015460ff16156109d15760405162461bcd60e51b815260206004820152601060248201526f1b999d08185b1c9958591e481cdbdb1960821b604482015260640161061d565b60058101805460ff191660011790556003546040516307543e3f60e41b81523360048201526001600160a01b03878116602483015290911690637543e3f090604401600060405180830381600087803b158015610a2d57600080fd5b505af1158015610a41573d6000803e3d6000fd5b50505060018201546001600160a01b039081166000908152601060209081526040808320938c16835292905220610a799150876126b8565b50600654600354604080516326fe96cd60e01b81529051600093926001600160a01b0316916326fe96cd9160048083019260209291908290030181865afa158015610ac8573d6000803e3d6000fd5b505050506040513d601f19601f82011682018060405250810190610aec9190612cb0565b8360030154610afb9190612c08565b610b059190612c27565b90506000610b1b6000546001600160a01b031690565b90508160005b60078160ff161015610d8257600354604051633b0f0f2f60e01b81523360048201526001600160a01b0390911690633b0f0f2f90602401602060405180830381865afa158015610b75573d6000803e3d6000fd5b505050506040513d601f19601f82011682018060405250810190610b999190612cc9565b6003546040516203066f60e71b815260ff841660048201529194506000916001600160a01b0390911690630183378090602401602060405180830381865afa158015610be9573d6000803e3d6000fd5b505050506040513d601f19601f82011682018060405250810190610c0d9190612cb0565b905060006006548287610c209190612c08565b610c2a9190612c27565b9050610c368185612ce6565b9350610c4a6000546001600160a01b031690565b6001600160a01b0316856001600160a01b03161415610cf35760028701546001600160a01b03166323b872dd33610c896000546001600160a01b031690565b876040518463ffffffff1660e01b8152600401610ca893929190612cfd565b6020604051808303816000875af1158015610cc7573d6000803e3d6000fd5b505050506040513d601f19601f82011682018060405250810190610ceb9190612d21565b505050610d82565b60028701546040516323b872dd60e01b81526001600160a01b03909116906323b872dd90610d2990339089908690600401612cfd565b6020604051808303816000875af1158015610d48573d6000803e3d6000fd5b505050506040513d601f19601f82011682018060405250810190610d6c9190612d21565b5050508080610d7a90612d43565b915050610b21565b508015610e095760028401546005546040516323b872dd60e01b81526001600160a01b03928316926323b872dd92610dc4923392909116908690600401612cfd565b6020604051808303816000875af1158015610de3573d6000803e3d6000fd5b505050506040513d601f19601f82011682018060405250810190610e079190612d21565b505b6002840154600185015460038601546001600160a01b03928316926323b872dd923392911690610e3a908890612ce6565b6040518463ffffffff1660e01b8152600401610e5893929190612cfd565b6020604051808303816000875af1158015610e77573d6000803e3d6000fd5b505050506040513d601f19601f82011682018060405250810190610e9b9190612d21565b508354604051632142170760e11b81526001600160a01b038c16916342842e0e91610ecd913091339190600401612cfd565b600060405180830381600087803b158015610ee757600080fd5b505af1158015610efb573d6000803e3d6000fd5b50508554600287015460038801546001890154604080516001600160a01b0394851681526020810193909352908316908201523394509192508d16907fb2d42b09f2a55068b5a87c2028d99d04a7aab693f19d598854c9ce89802be3909060600160405180910390a450505050505050505050565b60405162986b2160e41b815230600482015260609082906000906001600160a01b03831690630986b21090602401600060405180830381865afa158015610fbb573d6000803e3d6000fd5b505050506040513d6000823e601f3d908101601f19168201604052610fe39190810190612db8565b90506000815167ffffffffffffffff81111561100157611001612c69565b60405190808252806020026020018201604052801561103a57816020015b611027612906565b81526020019060019003908161101f5790505b50905060005b825181101561089f576001600160a01b0386166000908152600f60205260408120845190919085908490811061107857611078612c7f565b6020908102919091018101518252818101929092526040908101600020815160c0810183528154815260018201546001600160a01b039081169482019490945260028201549093169183019190915260038101546060830152600481015460808301526005015460ff16151560a082015282518390839081106110fd576110fd612c7f565b6020026020010181905250808061111390612c95565b915050611040565b60028054141561116d5760405162461bcd60e51b815260206004820152601f60248201527f5265656e7472616e637947756172643a207265656e7472616e742063616c6c00604482015260640161061d565b600280556001600160a01b038084166000908152600f602090815260408083208684529091529020600181015490911633146111e05760405162461bcd60e51b81526020600482015260126024820152712a37b5b2b71037bbb732b91032b93937b91760711b604482015260640161061d565b60038101829055604051828152839033906001600160a01b038716907fbf82d3911f5c24eb518c200558e7301039d63a6fbea04a7d21ecfa9fc905bab29060200160405180910390a4505060016002555050565b6007546040516370a0823160e01b815233600482015282916001600160a01b0316906370a0823190602401602060405180830381865afa15801561127c573d6000803e3d6000fd5b505050506040513d601f19601f820116820180604052508101906112a09190612cb0565b116112fe5760405162461bcd60e51b815260206004820152602860248201527f4d61726b6574706c6163653a207377617020616d6f756e7420657863656564736044820152672062616c616e636560c01b606482015260840161061d565b6000611315600c54836126c490919063ffffffff16565b6007546040516323b872dd60e01b81529192506001600160a01b0316906323b872dd9061134a90339030908790600401612cfd565b6020604051808303816000875af1158015611369573d6000803e3d6000fd5b505050506040513d601f19601f8201168201806040525081019061138d9190612d21565b5060085460405163095ea7b360e01b8152336004820152602481018390526001600160a01b039091169063095ea7b3906044016020604051808303816000875af11580156113df573d6000803e3d6000fd5b505050506040513d601f19601f820116820180604052508101906114039190612d21565b506008546040516323b872dd60e01b81526001600160a01b03909116906323b872dd9061143890309033908690600401612cfd565b6020604051808303816000875af1158015611457573d6000803e3d6000fd5b505050506040513d601f19601f8201168201806040525081019061147b9190612d21565b505050565b60007f00000000000000000000000000000000000000000000000000000000000000006001600160a01b031663cdbe0fc36040518163ffffffff1660e01b8152600401600060405180830381865afa1580156114e0573d6000803e3d6000fd5b505050506040513d6000823e601f3d908101601f191682016040526115089190810190612e4e565b90506000805b82518160ff1610156117fd576000838260ff168151811061153157611531612c7f565b60209081029190910101516040516370a0823160e01b81523360048201529091506000906001600160a01b038316906370a0823190602401602060405180830381865afa158015611586573d6000803e3d6000fd5b505050506040513d601f19601f820116820180604052508101906115aa9190612cb0565b905060005b818110156117e757604051634f6ccce760e01b8152600481018290526000906001600160a01b03851690634f6ccce790602401602060405180830381865afa1580156115ff573d6000803e3d6000fd5b505050506040513d601f19601f820116820180604052508101906116239190612cb0565b90506000600b6000898860ff168151811061164057611640612c7f565b60200260200101516001600160a01b03166001600160a01b0316815260200190815260200160002060008381526020019081526020016000205461168360095490565b61168d9190612ce6565b90506000811161169e5750506117d5565b60005b8181101561177857600a600082600b60008d8c60ff16815181106116c7576116c7612c7f565b60200260200101516001600160a01b03166001600160a01b0316815260200190815260200160002060008781526020019081526020016000205461170b9190612edd565b815260200190815260200160002060008a8960ff168151811061173057611730612c7f565b60200260200101516001600160a01b03166001600160a01b0316815260200190815260200160002054886117649190612edd565b97508061177081612c95565b9150506116a1565b50600954600b60008a8960ff168151811061179557611795612c7f565b60200260200101516001600160a01b03166001600160a01b0316815260200190815260200160002060008481526020019081526020016000208190555050505b806117df81612c95565b9150506115af565b50505080806117f590612d43565b91505061150e565b506000811161185c5760405162461bcd60e51b815260206004820152602560248201527f4d61726b6574706c6163653a2073686f756c64206265206f766572207468616e604482015264207a65726f60d81b606482015260840161061d565b60075460405163a9059cbb60e01b8152336004820152602481018390526001600160a01b039091169063a9059cbb90604401611438565b6001600160a01b038083166000908152600f60209081526040808320858452825291829020825160c0810184528154815260018201548516928101839052600282015490941692840192909252600382015460608401526004820154608084015260059091015460ff16151560a0830152839183911580159061191857508060a00151155b6119515760405162461bcd60e51b815260206004820152600a6024820152691b9bdd081b1a5cdd195960b21b604482015260640161061d565b3360009081526010602090815260408083206001600160a01b0389168452909152902061197e908561271f565b6119ca5760405162461bcd60e51b815260206004820152601760248201527f4f726465723a20546f6b656e206e6f74206c6973746564000000000000000000604482015260640161061d565b3360009081526010602090815260408083206001600160a01b038916845290915290206119f790856126b8565b506001600160a01b0385166000818152600f602090815260408083208884529091528082208281556001810180546001600160a01b0319908116909155600282018054909116905560038101839055600480820193909355600501805460ff19169055516323b872dd60e01b81526323b872dd91611a7b91309133918a9101612cfd565b600060405180830381600087803b158015611a9557600080fd5b505af1158015611aa9573d6000803e3d6000fd5b50506040513392508691506001600160a01b038816907f15e0783fc33c435728716bf76811278c269d9c361a5505653bad981b2975e16290600090a45050505050565b6000546001600160a01b03163314611b165760405162461bcd60e51b815260040161061d90612c49565b600880546001600160a01b0319166001600160a01b0392909216919091179055565b6060600e805480602002602001604051908101604052809291908181526020018280548015611b9057602002820191906000526020600020905b81546001600160a01b03168152600190910190602001808311611b72575b5050505050905090565b6000546001600160a01b03163314611bc45760405162461bcd60e51b815260040161061d90612c49565b6000928352600a602090815260408085206001600160a01b039094168552929052912055565b6000546001600160a01b03163314611c145760405162461bcd60e51b815260040161061d90612c49565b600380546001600160a01b0319166001600160a01b0392909216919091179055565b6000546001600160a01b03163314611c605760405162461bcd60e51b815260040161061d90612c49565b612710811115611cb25760405162461bcd60e51b815260206004820152601a60248201527f63616e2774206d6f7265207468616e2031302070657263656e74000000000000604482015260640161061d565b600455565b60405162128e3560e11b81526001600160a01b03808616600483015285917f00000000000000000000000000000000000000000000000000000000000000009091169062251c6a90602401602060405180830381865afa158015611d1f573d6000803e3d6000fd5b505050506040513d601f19601f82011682018060405250810190611d439190612d21565b611d7d5760405162461bcd60e51b815260206004820152600b60248201526a1b9bdd0810d0910813919560aa1b604482015260640161061d565b826001600160a01b03811615801590611dae57506001600160a01b0381166000908152600d602052604090205460ff165b611dee5760405162461bcd60e51b815260206004820152601160248201527034b73b30b634b2103830bc903a37b5b2b760791b604482015260640161061d565b6040516331a9108f60e11b815260048101869052869033906001600160a01b03831690636352211e90602401602060405180830381865afa158015611e37573d6000803e3d6000fd5b505050506040513d601f19601f82011682018060405250810190611e5b9190612cc9565b6001600160a01b031614611ea15760405162461bcd60e51b815260206004820152600d60248201526c3737ba1037333a1037bbb732b960991b604482015260640161061d565b6040516323b872dd60e01b81526001600160a01b038216906323b872dd90611ed190339030908b90600401612cfd565b600060405180830381600087803b158015611eeb57600080fd5b505af1158015611eff573d6000803e3d6000fd5b505050506040518060c00160405280878152602001336001600160a01b03168152602001866001600160a01b0316815260200185815260200142815260200160001515815250600f6000896001600160a01b03166001600160a01b0316815260200190815260200160002060008881526020019081526020016000206000820151816000015560208201518160010160006101000a8154816001600160a01b0302191690836001600160a01b0316021790555060408201518160020160006101000a8154816001600160a01b0302191690836001600160a01b03160217905550606082015181600301556080820151816004015560a08201518160050160006101000a81548160ff0219169083151502179055509050506120708660106000336001600160a01b03166001600160a01b0316815260200190815260200160002060008a6001600160a01b03166001600160a01b0316815260200190815260200160002061273790919063ffffffff16565b50604080516001600160a01b0387811682526020820187905233928992918b16917fb23dfd4ddfeafb1790d9b0b3b86314a6d07328a77c7bcf8060881f2afc95b49c910160405180910390a450505050505050565b6000546001600160a01b031633146120ef5760405162461bcd60e51b815260040161061d90612c49565b6001600160a01b03166000908152600160208190526040909120805460ff19169091179055565b6000546001600160a01b031633146121405760405162461bcd60e51b815260040161061d90612c49565b61214a6009612743565b565b6000546001600160a01b031633146121765760405162461bcd60e51b815260040161061d90612c49565b600780546001600160a01b0319166001600160a01b0392909216919091179055565b6000546001600160a01b031633146121c25760405162461bcd60e51b815260040161061d90612c49565b600c55565b6000546001600160a01b031633146121f15760405162461bcd60e51b815260040161061d90612c49565b61214a600980546001019055565b6000807f00000000000000000000000000000000000000000000000000000000000000006001600160a01b031663cdbe0fc36040518163ffffffff1660e01b8152600401600060405180830381865afa158015612260573d6000803e3d6000fd5b505050506040513d6000823e601f3d908101601f191682016040526122889190810190612e4e565b90506000805b82518160ff161015612517576000838260ff16815181106122b1576122b1612c7f565b60209081029190910101516040516370a0823160e01b81526001600160a01b0388811660048301529192506000918316906370a0823190602401602060405180830381865afa158015612308573d6000803e3d6000fd5b505050506040513d601f19601f8201168201806040525081019061232c9190612cb0565b905060005b8181101561250157604051634f6ccce760e01b8152600481018290526000906001600160a01b03851690634f6ccce790602401602060405180830381865afa158015612381573d6000803e3d6000fd5b505050506040513d601f19601f820116820180604052508101906123a59190612cb0565b90506000600b6000898860ff16815181106123c2576123c2612c7f565b60200260200101516001600160a01b03166001600160a01b0316815260200190815260200160002060008381526020019081526020016000205461240560095490565b61240f9190612ce6565b905060005b818110156124eb57600a600082600b60008d8c60ff168151811061243a5761243a612c7f565b60200260200101516001600160a01b03166001600160a01b0316815260200190815260200160002060008781526020019081526020016000205461247e9190612edd565b815260200190815260200160002060008a8960ff16815181106124a3576124a3612c7f565b60200260200101516001600160a01b03166001600160a01b0316815260200190815260200160002054886124d79190612edd565b9750806124e381612c95565b915050612414565b50505080806124f990612c95565b915050612331565b505050808061250f90612d43565b91505061228e565b509392505050565b6000546001600160a01b031633146125495760405162461bcd60e51b815260040161061d90612c49565b6001600160a01b0381166125945760405162461bcd60e51b815260206004820152601260248201527163616e27742062652030206164647265737360701b604482015260640161061d565b600580546001600160a01b0319166001600160a01b0392909216919091179055565b6000546001600160a01b031633146125e05760405162461bcd60e51b815260040161061d90612c49565b6001600160a01b03166000908152600160205260409020805460ff19169055565b6000546001600160a01b0316331461262b5760405162461bcd60e51b815260040161061d90612c49565b600080546040516001600160a01b03808516939216917f8be0079c531659141344cd1fd0a4f28419497f9722a3daafe3b4186f6b6457e091a36001600160a01b031660008181526001602081905260408220805460ff1916909117905580546001600160a01b0319169091179055565b60006105ed825490565b60006126b1838361279a565b9392505050565b60006126b183836127c4565b60008082116127155760405162461bcd60e51b815260206004820152601a60248201527f536166654d6174683a206469766973696f6e206279207a65726f000000000000604482015260640161061d565b6126b18284612c27565b600081815260018301602052604081205415156126b1565b60006126b183836128b7565b8054806127925760405162461bcd60e51b815260206004820152601b60248201527f436f756e7465723a2064656372656d656e74206f766572666c6f770000000000604482015260640161061d565b600019019055565b60008260000182815481106127b1576127b1612c7f565b9060005260206000200154905092915050565b600081815260018301602052604081205480156128ad5760006127e8600183612ce6565b85549091506000906127fc90600190612ce6565b905081811461286157600086600001828154811061281c5761281c612c7f565b906000526020600020015490508087600001848154811061283f5761283f612c7f565b6000918252602080832090910192909255918252600188019052604090208390555b855486908061287257612872612ef5565b6001900381819060005260206000200160009055905585600101600086815260200190815260200160002060009055600193505050506105ed565b60009150506105ed565b60008181526001830160205260408120546128fe575081546001818101845560008481526020808220909301849055845484825282860190935260409020919091556105ed565b5060006105ed565b6040518060c001604052806000815260200160006001600160a01b0316815260200160006001600160a01b0316815260200160008152602001600081526020016000151581525090565b6001600160a01b038116811461296557600080fd5b50565b6000806040838503121561297b57600080fd5b823561298681612950565b946020939093013593505050565b6000602082840312156129a657600080fd5b5035919050565b6000602082840312156129bf57600080fd5b81356126b181612950565b600080604083850312156129dd57600080fd5b82356129e881612950565b915060208301356129f881612950565b809150509250929050565b602080825282518282018190526000919060409081850190868401855b82811015612a7c57815180518552868101516001600160a01b0390811688870152868201511686860152606080820151908601526080808201519086015260a09081015115159085015260c09093019290850190600101612a20565b5091979650505050505050565b600080600060608486031215612a9e57600080fd5b8335612aa981612950565b9250602084013591506040840135612ac081612950565b809150509250925092565b600080600060608486031215612ae057600080fd5b8335612aeb81612950565b95602085013595506040909401359392505050565b6020808252825182820181905260009190848201906040850190845b81811015612b415783516001600160a01b031683529284019291840191600101612b1c565b50909695505050505050565b600080600060608486031215612b6257600080fd5b833592506020840135612b7481612950565b929592945050506040919091013590565b60008060008060808587031215612b9b57600080fd5b8435612ba681612950565b9350602085013592506040850135612bbd81612950565b9396929550929360600135925050565b60008060408385031215612be057600080fd5b8235915060208301356129f881612950565b634e487b7160e01b600052601160045260246000fd5b6000816000190483118215151615612c2257612c22612bf2565b500290565b600082612c4457634e487b7160e01b600052601260045260246000fd5b500490565b60208082526006908201526510a7aba722a960d11b604082015260600190565b634e487b7160e01b600052604160045260246000fd5b634e487b7160e01b600052603260045260246000fd5b6000600019821415612ca957612ca9612bf2565b5060010190565b600060208284031215612cc257600080fd5b5051919050565b600060208284031215612cdb57600080fd5b81516126b181612950565b600082821015612cf857612cf8612bf2565b500390565b6001600160a01b039384168152919092166020820152604081019190915260600190565b600060208284031215612d3357600080fd5b815180151581146126b157600080fd5b600060ff821660ff811415612d5a57612d5a612bf2565b60010192915050565b604051601f8201601f1916810167ffffffffffffffff81118282101715612d8c57612d8c612c69565b604052919050565b600067ffffffffffffffff821115612dae57612dae612c69565b5060051b60200190565b60006020808385031215612dcb57600080fd5b825167ffffffffffffffff811115612de257600080fd5b8301601f81018513612df357600080fd5b8051612e06612e0182612d94565b612d63565b81815260059190911b82018301908381019087831115612e2557600080fd5b928401925b82841015612e4357835182529284019290840190612e2a565b979650505050505050565b60006020808385031215612e6157600080fd5b825167ffffffffffffffff811115612e7857600080fd5b8301601f81018513612e8957600080fd5b8051612e97612e0182612d94565b81815260059190911b82018301908381019087831115612eb657600080fd5b928401925b82841015612e43578351612ece81612950565b82529284019290840190612ebb565b60008219821115612ef057612ef0612bf2565b500190565b634e487b7160e01b600052603160045260246000fdfea2646970667358221220c95797478b698f19d35901ef1e20bc662a412e65cdc85d896709f1378c00f0e064736f6c634300080a0033",
  "linkReferences": {},
  "deployedLinkReferences": {}
}