{
  "_format": "hh-sol-artifact-1",
  "contractName": "CBDNFTFactory",
  "sourceName": "src/CBDNFTFactory.sol",
  "abi": [
    {
      "anonymous": false,
      "inputs": [
        {
          "indexed": false,
          "internalType": "address",
          "name": "creator",
          "type": "address"
        },
        {
          "indexed": false,
          "internalType": "address",
          "name": "nft",
          "type": "address"
        }
      ],
      "name": "CreatedNFTCollection",
      "type": "event"
    },
    {
      "inputs": [],
      "name": "getOwnCollections",
      "outputs": [
        {
          "internalType": "address[]",
          "name": "",
          "type": "address[]"
        }
      ],
      "stateMutability": "view",
      "type": "function"
    },
    {
      "inputs": [
        {
          "internalType": "address",
          "name": "_address",
          "type": "address"
        }
      ],
      "name": "importCollection",
      "outputs": [],
      "stateMutability": "nonpayable",
      "type": "function"
    },
    {
      "inputs": [
        {
          "internalType": "address",
          "name": "_nft",
          "type": "address"
        }
      ],
      "name": "isCBDNFT",
      "outputs": [
        {
          "internalType": "bool",
          "name": "",
          "type": "bool"
        }
      ],
      "stateMutability": "view",
      "type": "function"
    },
    {
      "inputs": [
        {
          "internalType": "uint256",
          "name": "",
          "type": "uint256"
        }
      ],
      "name": "nfts",
      "outputs": [
        {
          "internalType": "address",
          "name": "",
          "type": "address"
        }
      ],
      "stateMutability": "view",
      "type": "function"
    }
  ],
  "bytecode": "0x608060405234801561001057600080fd5b506102da806100206000396000f3fe608060405234801561001057600080fd5b506004361061004b5760003560e01c8062251c6a14610050578063047fd4e714610091578063265aa621146100a6578063cdbe0fc3146100d1575b600080fd5b61007c61005e36600461020e565b6001600160a01b031660009081526001602052604090205460ff1690565b60405190151581526020015b60405180910390f35b6100a461009f36600461020e565b6100e6565b005b6100b96100b436600461023e565b610182565b6040516001600160a01b039091168152602001610088565b6100d96101ac565b6040516100889190610257565b60008054600180820183557f290decd9548b62a8d60345a988386fc84ba6bc95484008f6362f93160ef3e56390910180546001600160a01b0319166001600160a01b0385169081179091558083526020828152604093849020805460ff19169093179092558251338152918201527fea726eee12ef9f1c98376e94cd86faae7256137e76005503ebe4f10c69f4b521910160405180910390a150565b6000818154811061019257600080fd5b6000918252602090912001546001600160a01b0316905081565b6060600080548060200260200160405190810160405280929190818152602001828054801561020457602002820191906000526020600020905b81546001600160a01b031681526001909101906020018083116101e6575b5050505050905090565b60006020828403121561022057600080fd5b81356001600160a01b038116811461023757600080fd5b9392505050565b60006020828403121561025057600080fd5b5035919050565b6020808252825182820181905260009190848201906040850190845b818110156102985783516001600160a01b031683529284019291840191600101610273565b5090969550505050505056fea2646970667358221220b3251ad9e8242a505113c9e8f8a4cd3da61e1b3dae246f74ddbd78742b6c925b64736f6c634300080a0033",
  "linkReferences": {},
  "deployedLinkReferences": {}
}