{
  "_format": "hh-sol-artifact-1",
  "contractName": "CBDNFT",
  "sourceName": "src/CBDNFT.sol",
  "abi": [
    {
      "inputs": [
        {
          "internalType": "string",
          "name": "name",
          "type": "string"
        },
        {
          "internalType": "string",
          "name": "symbol",
          "type": "string"
        },
        {
          "internalType": "address",
          "name": "feeRecipient_",
          "type": "address"
        }
      ],
      "stateMutability": "nonpayable",
      "type": "constructor"
    },
    {
      "anonymous": false,
      "inputs": [
        {
          "indexed": true,
          "internalType": "address",
          "name": "owner",
          "type": "address"
        },
        {
          "indexed": true,
          "internalType": "address",
          "name": "approved",
          "type": "address"
        },
        {
          "indexed": true,
          "internalType": "uint256",
          "name": "tokenId",
          "type": "uint256"
        }
      ],
      "name": "Approval",
      "type": "event"
    },
    {
      "anonymous": false,
      "inputs": [
        {
          "indexed": true,
          "internalType": "address",
          "name": "owner",
          "type": "address"
        },
        {
          "indexed": true,
          "internalType": "address",
          "name": "operator",
          "type": "address"
        },
        {
          "indexed": false,
          "internalType": "bool",
          "name": "approved",
          "type": "bool"
        }
      ],
      "name": "ApprovalForAll",
      "type": "event"
    },
    {
      "anonymous": false,
      "inputs": [
        {
          "indexed": true,
          "internalType": "address",
          "name": "previousOwner",
          "type": "address"
        },
        {
          "indexed": true,
          "internalType": "address",
          "name": "newOwner",
          "type": "address"
        }
      ],
      "name": "OwnershipTransferred",
      "type": "event"
    },
    {
      "anonymous": false,
      "inputs": [
        {
          "indexed": true,
          "internalType": "address",
          "name": "from",
          "type": "address"
        },
        {
          "indexed": true,
          "internalType": "address",
          "name": "to",
          "type": "address"
        },
        {
          "indexed": true,
          "internalType": "uint256",
          "name": "tokenId",
          "type": "uint256"
        }
      ],
      "name": "Transfer",
      "type": "event"
    },
    {
      "inputs": [],
      "name": "USDT",
      "outputs": [
        {
          "internalType": "contract IERC20",
          "name": "",
          "type": "address"
        }
      ],
      "stateMutability": "view",
      "type": "function"
    },
    {
      "inputs": [
        {
          "internalType": "address",
          "name": "to",
          "type": "address"
        },
        {
          "internalType": "uint256",
          "name": "tokenId",
          "type": "uint256"
        }
      ],
      "name": "approve",
      "outputs": [],
      "stateMutability": "nonpayable",
      "type": "function"
    },
    {
      "inputs": [
        {
          "internalType": "address",
          "name": "adr",
          "type": "address"
        }
      ],
      "name": "authorize",
      "outputs": [],
      "stateMutability": "nonpayable",
      "type": "function"
    },
    {
      "inputs": [
        {
          "internalType": "address",
          "name": "owner",
          "type": "address"
        }
      ],
      "name": "balanceOf",
      "outputs": [
        {
          "internalType": "uint256",
          "name": "",
          "type": "uint256"
        }
      ],
      "stateMutability": "view",
      "type": "function"
    },
    {
      "inputs": [],
      "name": "baseURI",
      "outputs": [
        {
          "internalType": "string",
          "name": "",
          "type": "string"
        }
      ],
      "stateMutability": "view",
      "type": "function"
    },
    {
      "inputs": [
        {
          "internalType": "address",
          "name": "to",
          "type": "address"
        },
        {
          "internalType": "uint256",
          "name": "count",
          "type": "uint256"
        }
      ],
      "name": "batchMint",
      "outputs": [],
      "stateMutability": "nonpayable",
      "type": "function"
    },
    {
      "inputs": [],
      "name": "currentIndex",
      "outputs": [
        {
          "internalType": "uint256",
          "name": "",
          "type": "uint256"
        }
      ],
      "stateMutability": "view",
      "type": "function"
    },
    {
      "inputs": [
        {
          "internalType": "uint256",
          "name": "tokenId",
          "type": "uint256"
        }
      ],
      "name": "getApproved",
      "outputs": [
        {
          "internalType": "address",
          "name": "",
          "type": "address"
        }
      ],
      "stateMutability": "view",
      "type": "function"
    },
    {
      "inputs": [
        {
          "internalType": "uint256",
          "name": "tokenId",
          "type": "uint256"
        }
      ],
      "name": "getOwnershipData",
      "outputs": [
        {
          "components": [
            {
              "internalType": "address",
              "name": "addr",
              "type": "address"
            },
            {
              "internalType": "uint64",
              "name": "startTimestamp",
              "type": "uint64"
            }
          ],
          "internalType": "struct ERC721A.TokenOwnership",
          "name": "",
          "type": "tuple"
        }
      ],
      "stateMutability": "view",
      "type": "function"
    },
    {
      "inputs": [
        {
          "internalType": "address",
          "name": "account",
          "type": "address"
        }
      ],
      "name": "getTokensOf",
      "outputs": [
        {
          "internalType": "uint256[]",
          "name": "",
          "type": "uint256[]"
        }
      ],
      "stateMutability": "view",
      "type": "function"
    },
    {
      "inputs": [],
      "name": "hiddenURI",
      "outputs": [
        {
          "internalType": "string",
          "name": "",
          "type": "string"
        }
      ],
      "stateMutability": "view",
      "type": "function"
    },
    {
      "inputs": [
        {
          "internalType": "address",
          "name": "owner",
          "type": "address"
        },
        {
          "internalType": "address",
          "name": "operator",
          "type": "address"
        }
      ],
      "name": "isApprovedForAll",
      "outputs": [
        {
          "internalType": "bool",
          "name": "",
          "type": "bool"
        }
      ],
      "stateMutability": "view",
      "type": "function"
    },
    {
      "inputs": [
        {
          "internalType": "address",
          "name": "adr",
          "type": "address"
        }
      ],
      "name": "isAuthorized",
      "outputs": [
        {
          "internalType": "bool",
          "name": "",
          "type": "bool"
        }
      ],
      "stateMutability": "view",
      "type": "function"
    },
    {
      "inputs": [
        {
          "internalType": "address",
          "name": "account",
          "type": "address"
        }
      ],
      "name": "isOwner",
      "outputs": [
        {
          "internalType": "bool",
          "name": "",
          "type": "bool"
        }
      ],
      "stateMutability": "view",
      "type": "function"
    },
    {
      "inputs": [
        {
          "internalType": "address",
          "name": "to",
          "type": "address"
        },
        {
          "internalType": "address",
          "name": "_referralAccount",
          "type": "address"
        }
      ],
      "name": "mint",
      "outputs": [],
      "stateMutability": "nonpayable",
      "type": "function"
    },
    {
      "inputs": [],
      "name": "mintEnabled",
      "outputs": [
        {
          "internalType": "bool",
          "name": "",
          "type": "bool"
        }
      ],
      "stateMutability": "view",
      "type": "function"
    },
    {
      "inputs": [],
      "name": "name",
      "outputs": [
        {
          "internalType": "string",
          "name": "",
          "type": "string"
        }
      ],
      "stateMutability": "view",
      "type": "function"
    },
    {
      "inputs": [],
      "name": "nextOwnerToExplicitlySet",
      "outputs": [
        {
          "internalType": "uint256",
          "name": "",
          "type": "uint256"
        }
      ],
      "stateMutability": "view",
      "type": "function"
    },
    {
      "inputs": [
        {
          "internalType": "address",
          "name": "owner",
          "type": "address"
        }
      ],
      "name": "numberMinted",
      "outputs": [
        {
          "internalType": "uint256",
          "name": "",
          "type": "uint256"
        }
      ],
      "stateMutability": "view",
      "type": "function"
    },
    {
      "inputs": [],
      "name": "owner",
      "outputs": [
        {
          "internalType": "address",
          "name": "",
          "type": "address"
        }
      ],
      "stateMutability": "view",
      "type": "function"
    },
    {
      "inputs": [
        {
          "internalType": "uint256",
          "name": "tokenId",
          "type": "uint256"
        }
      ],
      "name": "ownerOf",
      "outputs": [
        {
          "internalType": "address",
          "name": "",
          "type": "address"
        }
      ],
      "stateMutability": "view",
      "type": "function"
    },
    {
      "inputs": [],
      "name": "priceForUSDT",
      "outputs": [
        {
          "internalType": "uint256",
          "name": "",
          "type": "uint256"
        }
      ],
      "stateMutability": "view",
      "type": "function"
    },
    {
      "inputs": [],
      "name": "revealed",
      "outputs": [
        {
          "internalType": "bool",
          "name": "",
          "type": "bool"
        }
      ],
      "stateMutability": "view",
      "type": "function"
    },
    {
      "inputs": [
        {
          "internalType": "address",
          "name": "from",
          "type": "address"
        },
        {
          "internalType": "address",
          "name": "to",
          "type": "address"
        },
        {
          "internalType": "uint256",
          "name": "tokenId",
          "type": "uint256"
        }
      ],
      "name": "safeTransferFrom",
      "outputs": [],
      "stateMutability": "nonpayable",
      "type": "function"
    },
    {
      "inputs": [
        {
          "internalType": "address",
          "name": "from",
          "type": "address"
        },
        {
          "internalType": "address",
          "name": "to",
          "type": "address"
        },
        {
          "internalType": "uint256",
          "name": "tokenId",
          "type": "uint256"
        },
        {
          "internalType": "bytes",
          "name": "_data",
          "type": "bytes"
        }
      ],
      "name": "safeTransferFrom",
      "outputs": [],
      "stateMutability": "nonpayable",
      "type": "function"
    },
    {
      "inputs": [
        {
          "internalType": "address",
          "name": "operator",
          "type": "address"
        },
        {
          "internalType": "bool",
          "name": "approved",
          "type": "bool"
        }
      ],
      "name": "setApprovalForAll",
      "outputs": [],
      "stateMutability": "nonpayable",
      "type": "function"
    },
    {
      "inputs": [
        {
          "internalType": "string",
          "name": "baseURI_",
          "type": "string"
        }
      ],
      "name": "setBaseURI",
      "outputs": [],
      "stateMutability": "nonpayable",
      "type": "function"
    },
    {
      "inputs": [
        {
          "internalType": "address",
          "name": "feeRecipient_",
          "type": "address"
        }
      ],
      "name": "setFeeRecipient",
      "outputs": [],
      "stateMutability": "nonpayable",
      "type": "function"
    },
    {
      "inputs": [
        {
          "internalType": "string",
          "name": "hiddenURI_",
          "type": "string"
        }
      ],
      "name": "setHiddenURI",
      "outputs": [],
      "stateMutability": "nonpayable",
      "type": "function"
    },
    {
      "inputs": [
        {
          "internalType": "uint256",
          "name": "quantity",
          "type": "uint256"
        }
      ],
      "name": "setOwnersExplicit",
      "outputs": [],
      "stateMutability": "nonpayable",
      "type": "function"
    },
    {
      "inputs": [
        {
          "internalType": "uint256",
          "name": "_newPrice",
          "type": "uint256"
        }
      ],
      "name": "setPriceForUSDT",
      "outputs": [],
      "stateMutability": "nonpayable",
      "type": "function"
    },
    {
      "inputs": [
        {
          "internalType": "address",
          "name": "_referalAddr",
          "type": "address"
        }
      ],
      "name": "setReferral",
      "outputs": [],
      "stateMutability": "nonpayable",
      "type": "function"
    },
    {
      "inputs": [
        {
          "internalType": "address",
          "name": "_USDT",
          "type": "address"
        }
      ],
      "name": "setUSDT",
      "outputs": [],
      "stateMutability": "nonpayable",
      "type": "function"
    },
    {
      "inputs": [
        {
          "internalType": "bytes4",
          "name": "interfaceId",
          "type": "bytes4"
        }
      ],
      "name": "supportsInterface",
      "outputs": [
        {
          "internalType": "bool",
          "name": "",
          "type": "bool"
        }
      ],
      "stateMutability": "view",
      "type": "function"
    },
    {
      "inputs": [],
      "name": "symbol",
      "outputs": [
        {
          "internalType": "string",
          "name": "",
          "type": "string"
        }
      ],
      "stateMutability": "view",
      "type": "function"
    },
    {
      "inputs": [],
      "name": "toggleMinting",
      "outputs": [],
      "stateMutability": "nonpayable",
      "type": "function"
    },
    {
      "inputs": [],
      "name": "toggleRevealed",
      "outputs": [],
      "stateMutability": "nonpayable",
      "type": "function"
    },
    {
      "inputs": [
        {
          "internalType": "uint256",
          "name": "index",
          "type": "uint256"
        }
      ],
      "name": "tokenByIndex",
      "outputs": [
        {
          "internalType": "uint256",
          "name": "",
          "type": "uint256"
        }
      ],
      "stateMutability": "view",
      "type": "function"
    },
    {
      "inputs": [
        {
          "internalType": "address",
          "name": "owner",
          "type": "address"
        },
        {
          "internalType": "uint256",
          "name": "index",
          "type": "uint256"
        }
      ],
      "name": "tokenOfOwnerByIndex",
      "outputs": [
        {
          "internalType": "uint256",
          "name": "",
          "type": "uint256"
        }
      ],
      "stateMutability": "view",
      "type": "function"
    },
    {
      "inputs": [
        {
          "internalType": "uint256",
          "name": "tokenId",
          "type": "uint256"
        }
      ],
      "name": "tokenURI",
      "outputs": [
        {
          "internalType": "string",
          "name": "",
          "type": "string"
        }
      ],
      "stateMutability": "view",
      "type": "function"
    },
    {
      "inputs": [],
      "name": "totalSupply",
      "outputs": [
        {
          "internalType": "uint256",
          "name": "",
          "type": "uint256"
        }
      ],
      "stateMutability": "view",
      "type": "function"
    },
    {
      "inputs": [
        {
          "internalType": "address",
          "name": "from",
          "type": "address"
        },
        {
          "internalType": "address",
          "name": "to",
          "type": "address"
        },
        {
          "internalType": "uint256",
          "name": "tokenId",
          "type": "uint256"
        }
      ],
      "name": "transferFrom",
      "outputs": [],
      "stateMutability": "nonpayable",
      "type": "function"
    },
    {
      "inputs": [
        {
          "internalType": "address payable",
          "name": "adr",
          "type": "address"
        }
      ],
      "name": "transferOwnership",
      "outputs": [],
      "stateMutability": "nonpayable",
      "type": "function"
    },
    {
      "inputs": [
        {
          "internalType": "address",
          "name": "adr",
          "type": "address"
        }
      ],
      "name": "unauthorize",
      "outputs": [],
      "stateMutability": "nonpayable",
      "type": "function"
    },
    {
      "inputs": [],
      "name": "withdraw",
      "outputs": [],
      "stateMutability": "nonpayable",
      "type": "function"
    }
  ],
  "bytecode": "0x6080604052600f805460ff19166001179055601180546001600160a01b03191673e3fffe75c3f986fa0447c4e597838ddf06eba3f31790553480156200004457600080fd5b50604051620030d3380380620030d383398101604081905262000067916200029e565b825183908390620000809060019060208501906200012b565b508051620000969060029060208401906200012b565b5050506000620000ab6200012760201b60201c565b600780546001600160a01b0319166001600160a01b038316908117909155604051919250906000907f8be0079c531659141344cd1fd0a4f28419497f9722a3daafe3b4186f6b6457e0908290a3506001600955601280546001600160a01b0319166001600160a01b039290921691909117905550620003689050565b3390565b82805462000139906200032b565b90600052602060002090601f0160209004810192826200015d5760008555620001a8565b82601f106200017857805160ff1916838001178555620001a8565b82800160010185558215620001a8579182015b82811115620001a85782518255916020019190600101906200018b565b50620001b6929150620001ba565b5090565b5b80821115620001b65760008155600101620001bb565b634e487b7160e01b600052604160045260246000fd5b600082601f830112620001f957600080fd5b81516001600160401b0380821115620002165762000216620001d1565b604051601f8301601f19908116603f01168101908282118183101715620002415762000241620001d1565b816040528381526020925086838588010111156200025e57600080fd5b600091505b8382101562000282578582018301518183018401529082019062000263565b83821115620002945760008385830101525b9695505050505050565b600080600060608486031215620002b457600080fd5b83516001600160401b0380821115620002cc57600080fd5b620002da87838801620001e7565b94506020860151915080821115620002f157600080fd5b506200030086828701620001e7565b604086015190935090506001600160a01b03811681146200032057600080fd5b809150509250925092565b600181811c908216806200034057607f821691505b602082108114156200036257634e487b7160e01b600052602260045260246000fd5b50919050565b612d5b80620003786000396000f3fe608060405234801561001057600080fd5b506004361061027f5760003560e01c80636c0360eb1161015c578063bbaac02f116100ce578063e74b981b11610087578063e74b981b1461057a578063e985e9c51461058d578063ee1fe2ad146105c9578063f0b37c04146105dc578063f2fde38b146105ef578063fe9fbb801461060257600080fd5b8063bbaac02f14610518578063c54e44eb1461052b578063c87b56dd1461053e578063d123973014610551578063d7224ba01461055e578063dc33e6811461056757600080fd5b80639231ab2a116101205780639231ab2a1461048357806395d89b41146104c45780639e5914da146104cc578063a22cb465146104df578063b6a5d7de146104f2578063b88d4fde1461050557600080fd5b80636c0360eb1461044757806370a082311461044f5780637d55094d146104625780638cc54e7f1461046a5780638da5cb5b1461047257600080fd5b806336516d7f116101f55780634f6ccce7116101b95780634f6ccce7146103e157806350c1b923146103f4578063518302271461040757806355f804b3146104195780635bc020bc1461042c5780636352211e1461043457600080fd5b806336516d7f146103975780633ccfd60b146103a057806342842e0e146103a857806343508b05146103bb5780634bb20bc0146103ce57600080fd5b806318160ddd1161024757806318160ddd1461032157806323b872dd1461033357806326987b60146103465780632d20fb601461034f5780632f54bf6e146103625780632f745c591461038457600080fd5b806301ffc9a71461028457806306fdde03146102ac578063081812fc146102c1578063095ea7b3146102ec5780630986b21014610301575b600080fd5b6102976102923660046126ac565b61062e565b60405190151581526020015b60405180910390f35b6102b461069b565b6040516102a39190612728565b6102d46102cf36600461273b565b61072d565b6040516001600160a01b0390911681526020016102a3565b6102ff6102fa366004612769565b6107bd565b005b61031461030f366004612795565b6108d5565b6040516102a391906127b2565b6000545b6040519081526020016102a3565b6102ff6103413660046127f6565b610a3d565b61032560005481565b6102ff61035d36600461273b565b610a48565b610297610370366004612795565b6007546001600160a01b0391821691161490565b610325610392366004612769565b610adb565b61032560105481565b6102ff610c38565b6102ff6103b63660046127f6565b610d45565b6102ff6103c9366004612769565b610d60565b6102ff6103dc36600461273b565b610e23565b6103256103ef36600461273b565b610e52565b6102ff610402366004612795565b610eb4565b600f5461029790610100900460ff1681565b6102ff610427366004612837565b610f00565b6102ff610f36565b6102d461044236600461273b565b610f7d565b6102b4610f8f565b61032561045d366004612795565b61101d565b6102ff6110ae565b6102b46110ec565b6007546001600160a01b03166102d4565b61049661049136600461273b565b6110f9565b6040805182516001600160a01b0316815260209283015167ffffffffffffffff1692810192909252016102a3565b6102b4611116565b6102ff6104da366004612795565b611125565b6102ff6104ed3660046128b7565b611171565b6102ff610500366004612795565b611236565b6102ff610513366004612906565b611284565b6102ff610526366004612837565b6112bd565b6011546102d4906001600160a01b031681565b6102b461054c36600461273b565b6112f3565b600f546102979060ff1681565b610325600e5481565b610325610575366004612795565b611440565b6102ff610588366004612795565b61144b565b61029761059b3660046129e6565b6001600160a01b03918216600090815260066020908152604080832093909416825291909152205460ff1690565b6102ff6105d73660046129e6565b611497565b6102ff6105ea366004612795565b6115b5565b6102ff6105fd366004612795565b611600565b610297610610366004612795565b6001600160a01b031660009081526008602052604090205460ff1690565b60006001600160e01b031982166380ac58cd60e01b148061065f57506001600160e01b03198216635b5e139f60e01b145b8061067a57506001600160e01b0319821663780e9d6360e01b145b8061069557506301ffc9a760e01b6001600160e01b03198316145b92915050565b6060600180546106aa90612a14565b80601f01602080910402602001604051908101604052809291908181526020018280546106d690612a14565b80156107235780601f106106f857610100808354040283529160200191610723565b820191906000526020600020905b81548152906001019060200180831161070657829003601f168201915b5050505050905090565b600061073a826000541190565b6107a15760405162461bcd60e51b815260206004820152602d60248201527f455243373231413a20617070726f76656420717565727920666f72206e6f6e6560448201526c3c34b9ba32b73a103a37b5b2b760991b60648201526084015b60405180910390fd5b506000908152600560205260409020546001600160a01b031690565b60006107c882610f7d565b9050806001600160a01b0316836001600160a01b031614156108375760405162461bcd60e51b815260206004820152602260248201527f455243373231413a20617070726f76616c20746f2063757272656e74206f776e60448201526132b960f11b6064820152608401610798565b336001600160a01b03821614806108535750610853813361059b565b6108c55760405162461bcd60e51b815260206004820152603960248201527f455243373231413a20617070726f76652063616c6c6572206973206e6f74206f60448201527f776e6572206e6f7220617070726f76656420666f7220616c6c000000000000006064820152608401610798565b6108d083838361169b565b505050565b6040516370a0823160e01b81526001600160a01b038216600482015260609060009030906370a0823190602401602060405180830381865afa15801561091f573d6000803e3d6000fd5b505050506040513d601f19601f820116820180604052508101906109439190612a4f565b905060008167ffffffffffffffff811115610960576109606128f0565b604051908082528060200260200182016040528015610989578160200160208202803683370190505b50905060005b82811015610a3557604051632f745c5960e01b81526001600160a01b0386166004820152602481018290523090632f745c5990604401602060405180830381865afa1580156109e2573d6000803e3d6000fd5b505050506040513d601f19601f82011682018060405250810190610a069190612a4f565b828281518110610a1857610a18612a68565b602090810291909101015280610a2d81612a94565b91505061098f565b509392505050565b6108d08383836116f7565b6007546001600160a01b03163314610a725760405162461bcd60e51b815260040161079890612aaf565b60026009541415610ac55760405162461bcd60e51b815260206004820152601f60248201527f5265656e7472616e637947756172643a207265656e7472616e742063616c6c006044820152606401610798565b6002600955610ad3816119dc565b506001600955565b6000610ae68361101d565b8210610b3f5760405162461bcd60e51b815260206004820152602260248201527f455243373231413a206f776e657220696e646578206f7574206f6620626f756e604482015261647360f01b6064820152608401610798565b600080549080805b83811015610bd8576000818152600360209081526040918290208251808401909352546001600160a01b038116808452600160a01b90910467ffffffffffffffff169183019190915215610b9a57805192505b876001600160a01b0316836001600160a01b03161415610bcf5786841415610bc85750935061069592505050565b6001909301925b50600101610b47565b5060405162461bcd60e51b815260206004820152602e60248201527f455243373231413a20756e61626c6520746f2067657420746f6b656e206f662060448201526d0deeedccae440c4f240d2dcc8caf60931b6064820152608401610798565b6007546001600160a01b03163314610c625760405162461bcd60e51b815260040161079890612aaf565b60026009541415610cb55760405162461bcd60e51b815260206004820152601f60248201527f5265656e7472616e637947756172643a207265656e7472616e742063616c6c006044820152606401610798565b6002600955604051600090339047908381818185875af1925050503d8060008114610cfc576040519150601f19603f3d011682016040523d82523d6000602084013e610d01565b606091505b5050905080610ad35760405162461bcd60e51b815260206004820152601060248201526f2a3930b739b332b9103330b4b632b21760811b6044820152606401610798565b6108d083838360405180602001604052806000815250611284565b333214610da65760405162461bcd60e51b815260206004820152601460248201527377686f20796f75207472796e612074726f6c6c3f60601b6044820152606401610798565b600f5460ff16610ded5760405162461bcd60e51b8152602060048201526012602482015271636f6d65206261636b20746f6d6f72726f7760701b6044820152606401610798565b6007546001600160a01b03163314610e1557610e1581601054610e109190612acf565b611b6b565b610e1f82826120ac565b5050565b6007546001600160a01b03163314610e4d5760405162461bcd60e51b815260040161079890612aaf565b601055565b600080548210610eb05760405162461bcd60e51b815260206004820152602360248201527f455243373231413a20676c6f62616c20696e646578206f7574206f6620626f756044820152626e647360e81b6064820152608401610798565b5090565b6007546001600160a01b03163314610ede5760405162461bcd60e51b815260040161079890612aaf565b601180546001600160a01b0319166001600160a01b0392909216919091179055565b6007546001600160a01b03163314610f2a5760405162461bcd60e51b815260040161079890612aaf565b6108d0600c8383612603565b6007546001600160a01b03163314610f605760405162461bcd60e51b815260040161079890612aaf565b600f805461ff001981166101009182900460ff1615909102179055565b6000610f88826120c6565b5192915050565b600c8054610f9c90612a14565b80601f0160208091040260200160405190810160405280929190818152602001828054610fc890612a14565b80156110155780601f10610fea57610100808354040283529160200191611015565b820191906000526020600020905b815481529060010190602001808311610ff857829003601f168201915b505050505081565b60006001600160a01b0382166110895760405162461bcd60e51b815260206004820152602b60248201527f455243373231413a2062616c616e636520717565727920666f7220746865207a60448201526a65726f206164647265737360a81b6064820152608401610798565b506001600160a01b03166000908152600460205260409020546001600160801b031690565b6007546001600160a01b031633146110d85760405162461bcd60e51b815260040161079890612aaf565b600f805460ff19811660ff90911615179055565b600a8054610f9c90612a14565b6040805180820190915260008082526020820152610695826120c6565b6060600280546106aa90612a14565b6007546001600160a01b0316331461114f5760405162461bcd60e51b815260040161079890612aaf565b600d80546001600160a01b0319166001600160a01b0392909216919091179055565b6001600160a01b0382163314156111ca5760405162461bcd60e51b815260206004820152601a60248201527f455243373231413a20617070726f766520746f2063616c6c65720000000000006044820152606401610798565b3360008181526006602090815260408083206001600160a01b03871680855290835292819020805460ff191686151590811790915590519081529192917f17307eab39ab6107e8899845ad3d59bd9653f200f220920489ca2b5937696c31910160405180910390a35050565b6007546001600160a01b031633146112605760405162461bcd60e51b815260040161079890612aaf565b6001600160a01b03166000908152600860205260409020805460ff19166001179055565b61128f8484846116f7565b61129b8484848461219d565b6112b75760405162461bcd60e51b815260040161079890612aee565b50505050565b6007546001600160a01b031633146112e75760405162461bcd60e51b815260040161079890612aaf565b6108d0600a8383612603565b6060611300826000541190565b6113435760405162461bcd60e51b81526020600482015260146024820152731d1c9bdb1b08191bd95cc81b9bdd08195e1a5cdd60621b6044820152606401610798565b600f54610100900460ff16156113ae57600c805461136090612a14565b1515905061137d5760405180602001604052806000815250610695565b600c6113888361229c565b604051602001611399929190612b5d565b60405160208183030381529060405292915050565b600a80546113bb90612a14565b80601f01602080910402602001604051908101604052809291908181526020018280546113e790612a14565b80156114345780601f1061140957610100808354040283529160200191611434565b820191906000526020600020905b81548152906001019060200180831161141757829003601f168201915b50505050509050919050565b60006106958261239a565b6007546001600160a01b031633146114755760405162461bcd60e51b815260040161079890612aaf565b601280546001600160a01b0319166001600160a01b0392909216919091179055565b3332146114dd5760405162461bcd60e51b815260206004820152601460248201527377686f20796f75207472796e612074726f6c6c3f60601b6044820152606401610798565b600f5460ff166115245760405162461bcd60e51b8152602060048201526012602482015271636f6d65206261636b20746f6d6f72726f7760701b6044820152606401610798565b6007546001600160a01b0316331461154157611541601054611b6b565b61154c8260016120ac565b600d546040516307543e3f60e41b81523360048201526001600160a01b03838116602483015290911690637543e3f090604401600060405180830381600087803b15801561159957600080fd5b505af11580156115ad573d6000803e3d6000fd5b505050505050565b6007546001600160a01b031633146115df5760405162461bcd60e51b815260040161079890612aaf565b6001600160a01b03166000908152600860205260409020805460ff19169055565b6007546001600160a01b0316331461162a5760405162461bcd60e51b815260040161079890612aaf565b6007546040516001600160a01b038084169216907f8be0079c531659141344cd1fd0a4f28419497f9722a3daafe3b4186f6b6457e090600090a36001600160a01b03166000818152600860205260409020805460ff19166001179055600780546001600160a01b0319169091179055565b60008281526005602052604080822080546001600160a01b0319166001600160a01b0387811691821790925591518593918516917f8c5be1e5ebec7d5bd14f71427d1e84f3dd0314c0f7b2291e5b200ac8c7c3b92591a4505050565b6000611702826120c6565b80519091506000906001600160a01b0316336001600160a01b0316148061173957503361172e8461072d565b6001600160a01b0316145b8061174b5750815161174b903361059b565b9050806117b55760405162461bcd60e51b815260206004820152603260248201527f455243373231413a207472616e736665722063616c6c6572206973206e6f74206044820152711bdddb995c881b9bdc88185c1c1c9bdd995960721b6064820152608401610798565b846001600160a01b031682600001516001600160a01b0316146118295760405162461bcd60e51b815260206004820152602660248201527f455243373231413a207472616e736665722066726f6d20696e636f72726563746044820152651037bbb732b960d11b6064820152608401610798565b6001600160a01b03841661188d5760405162461bcd60e51b815260206004820152602560248201527f455243373231413a207472616e7366657220746f20746865207a65726f206164604482015264647265737360d81b6064820152608401610798565b61189d600084846000015161169b565b6001600160a01b03858116600090815260046020908152604080832080546001600160801b03198082166001600160801b03928316600019018316179092558986168086528386208054938416938316600190810190931693909317909255888552600390935281842080546001600160e01b031916909117600160a01b4267ffffffffffffffff160217905590860180835291205490911661199257611945816000541190565b15611992578251600082815260036020908152604090912080549186015167ffffffffffffffff16600160a01b026001600160e01b03199092166001600160a01b03909316929092171790555b5082846001600160a01b0316866001600160a01b03167fddf252ad1be2c89b69c2b068fc378daa952ba7f163c4a11628f55a4df523b3ef60405160405180910390a45b5050505050565b80611a295760405162461bcd60e51b815260206004820152601860248201527f7175616e74697479206d757374206265206e6f6e7a65726f00000000000000006044820152606401610798565b600054611a6f5760405162461bcd60e51b81526020600482015260146024820152731b9bc81d1bdad95b9cc81b5a5b9d1959081e595d60621b6044820152606401610798565b600e546000548110611ac35760405162461bcd60e51b815260206004820152601c60248201527f616c6c206f776e657273686970732068617665206265656e20736574000000006044820152606401610798565b6000548282016000198101911015611ade5750600054600019015b815b818111611b60576000818152600360205260409020546001600160a01b0316611b58576000611b0e826120c6565b805160008481526003602090815260409091208054919093015167ffffffffffffffff16600160a01b026001600160e01b03199091166001600160a01b0390921691909117179055505b600101611ae0565b50600101600e555050565b6011546040516370a0823160e01b815233600482015282916001600160a01b0316906370a0823190602401602060405180830381865afa158015611bb3573d6000803e3d6000fd5b505050506040513d601f19601f82011682018060405250810190611bd79190612a4f565b1015611c1c5760405162461bcd60e51b8152602060048201526014602482015273496e73756666696369656e742062616c616e636560601b6044820152606401610798565b600d5460408051636cfa825b60e01b815290516000926001600160a01b031691636cfa825b9160048083019260209291908290030181865afa158015611c66573d6000803e3d6000fd5b505050506040513d601f19601f82011682018060405250810190611c8a9190612a4f565b600d60009054906101000a90046001600160a01b03166001600160a01b03166326fe96cd6040518163ffffffff1660e01b8152600401602060405180830381865afa158015611cdd573d6000803e3d6000fd5b505050506040513d601f19601f82011682018060405250810190611d019190612a4f565b611d0b9084612acf565b611d159190612c1a565b90506000611d238284612c2e565b6011546012546040516323b872dd60e01b81523360048201526001600160a01b0391821660248201526044810184905292935016906323b872dd906064016020604051808303816000875af1158015611d80573d6000803e3d6000fd5b505050506040513d601f19601f82011682018060405250810190611da49190612c45565b506000611db96007546001600160a01b031690565b905082915060005b60078160ff1610156119d557600d54604051633b0f0f2f60e01b81523360048201526001600160a01b0390911690633b0f0f2f90602401602060405180830381865afa158015611e15573d6000803e3d6000fd5b505050506040513d601f19601f82011682018060405250810190611e399190612c62565b600d546040516203066f60e71b815260ff841660048201529193506000916001600160a01b0390911690630183378090602401602060405180830381865afa158015611e89573d6000803e3d6000fd5b505050506040513d601f19601f82011682018060405250810190611ead9190612a4f565b90506000600d60009054906101000a90046001600160a01b03166001600160a01b0316636cfa825b6040518163ffffffff1660e01b8152600401602060405180830381865afa158015611f04573d6000803e3d6000fd5b505050506040513d601f19601f82011682018060405250810190611f289190612a4f565b611f328388612acf565b611f3c9190612c1a565b9050611f488186612c2e565b9450611f5c6007546001600160a01b031690565b6001600160a01b0316846001600160a01b03161415612019576011546001600160a01b03166323b872dd33611f996007546001600160a01b031690565b6040516001600160e01b031960e085901b1681526001600160a01b03928316600482015291166024820152604481018890526064016020604051808303816000875af1158015611fed573d6000803e3d6000fd5b505050506040513d601f19601f820116820180604052508101906120119190612c45565b5050506119d5565b6011546040516323b872dd60e01b81523360048201526001600160a01b03868116602483015260448201849052909116906323b872dd906064016020604051808303816000875af1158015612072573d6000803e3d6000fd5b505050506040513d601f19601f820116820180604052508101906120969190612c45565b50505080806120a490612c7f565b915050611dc1565b610e1f828260405180602001604052806000815250612438565b60408051808201909152600080825260208201526120e5826000541190565b6121445760405162461bcd60e51b815260206004820152602a60248201527f455243373231413a206f776e657220717565727920666f72206e6f6e657869736044820152693a32b73a103a37b5b2b760b11b6064820152608401610798565b815b6000818152600360209081526040918290208251808401909352546001600160a01b038116808452600160a01b90910467ffffffffffffffff169183019190915215612193579392505050565b5060001901612146565b60006001600160a01b0384163b1561229057604051630a85bd0160e11b81526001600160a01b0385169063150b7a02906121e1903390899088908890600401612c9f565b6020604051808303816000875af192505050801561221c575060408051601f3d908101601f1916820190925261221991810190612cdc565b60015b612276573d80801561224a576040519150601f19603f3d011682016040523d82523d6000602084013e61224f565b606091505b50805161226e5760405162461bcd60e51b815260040161079890612aee565b805181602001fd5b6001600160e01b031916630a85bd0160e11b149050612294565b5060015b949350505050565b6060816122c05750506040805180820190915260018152600360fc1b602082015290565b8160005b81156122ea57806122d481612a94565b91506122e39050600a83612c1a565b91506122c4565b60008167ffffffffffffffff811115612305576123056128f0565b6040519080825280601f01601f19166020018201604052801561232f576020820181803683370190505b5090505b841561229457612344600183612c2e565b9150612351600a86612cf9565b61235c906030612d0d565b60f81b81838151811061237157612371612a68565b60200101906001600160f81b031916908160001a905350612393600a86612c1a565b9450612333565b60006001600160a01b03821661240c5760405162461bcd60e51b815260206004820152603160248201527f455243373231413a206e756d626572206d696e74656420717565727920666f7260448201527020746865207a65726f206164647265737360781b6064820152608401610798565b506001600160a01b0316600090815260046020526040902054600160801b90046001600160801b031690565b6108d083838360016000546001600160a01b0385166124a35760405162461bcd60e51b815260206004820152602160248201527f455243373231413a206d696e7420746f20746865207a65726f206164647265736044820152607360f81b6064820152608401610798565b836125015760405162461bcd60e51b815260206004820152602860248201527f455243373231413a207175616e74697479206d75737420626520677265617465604482015267072207468616e20360c41b6064820152608401610798565b6001600160a01b03851660008181526004602090815260408083208054600160801b6001600160801b031982166001600160801b039283168c01831690811782900483168c01909216021790558483526003909152812080546001600160e01b031916909217600160a01b4267ffffffffffffffff16021790915581905b858110156125fa5760405182906001600160a01b038916906000907fddf252ad1be2c89b69c2b068fc378daa952ba7f163c4a11628f55a4df523b3ef908290a483156125ee576125d2600088848861219d565b6125ee5760405162461bcd60e51b815260040161079890612aee565b6001918201910161257f565b506000556119d5565b82805461260f90612a14565b90600052602060002090601f0160209004810192826126315760008555612677565b82601f1061264a5782800160ff19823516178555612677565b82800160010185558215612677579182015b8281111561267757823582559160200191906001019061265c565b50610eb09291505b80821115610eb0576000815560010161267f565b6001600160e01b0319811681146126a957600080fd5b50565b6000602082840312156126be57600080fd5b81356126c981612693565b9392505050565b60005b838110156126eb5781810151838201526020016126d3565b838111156112b75750506000910152565b600081518084526127148160208601602086016126d0565b601f01601f19169290920160200192915050565b6020815260006126c960208301846126fc565b60006020828403121561274d57600080fd5b5035919050565b6001600160a01b03811681146126a957600080fd5b6000806040838503121561277c57600080fd5b823561278781612754565b946020939093013593505050565b6000602082840312156127a757600080fd5b81356126c981612754565b6020808252825182820181905260009190848201906040850190845b818110156127ea578351835292840192918401916001016127ce565b50909695505050505050565b60008060006060848603121561280b57600080fd5b833561281681612754565b9250602084013561282681612754565b929592945050506040919091013590565b6000806020838503121561284a57600080fd5b823567ffffffffffffffff8082111561286257600080fd5b818501915085601f83011261287657600080fd5b81358181111561288557600080fd5b86602082850101111561289757600080fd5b60209290920196919550909350505050565b80151581146126a957600080fd5b600080604083850312156128ca57600080fd5b82356128d581612754565b915060208301356128e5816128a9565b809150509250929050565b634e487b7160e01b600052604160045260246000fd5b6000806000806080858703121561291c57600080fd5b843561292781612754565b9350602085013561293781612754565b925060408501359150606085013567ffffffffffffffff8082111561295b57600080fd5b818701915087601f83011261296f57600080fd5b813581811115612981576129816128f0565b604051601f8201601f19908116603f011681019083821181831017156129a9576129a96128f0565b816040528281528a60208487010111156129c257600080fd5b82602086016020830137600060208483010152809550505050505092959194509250565b600080604083850312156129f957600080fd5b8235612a0481612754565b915060208301356128e581612754565b600181811c90821680612a2857607f821691505b60208210811415612a4957634e487b7160e01b600052602260045260246000fd5b50919050565b600060208284031215612a6157600080fd5b5051919050565b634e487b7160e01b600052603260045260246000fd5b634e487b7160e01b600052601160045260246000fd5b6000600019821415612aa857612aa8612a7e565b5060010190565b60208082526006908201526510a7aba722a960d11b604082015260600190565b6000816000190483118215151615612ae957612ae9612a7e565b500290565b60208082526033908201527f455243373231413a207472616e7366657220746f206e6f6e204552433732315260408201527232b1b2b4bb32b91034b6b83632b6b2b73a32b960691b606082015260800190565b60008151612b538185602086016126d0565b9290920192915050565b600080845481600182811c915080831680612b7957607f831692505b6020808410821415612b9957634e487b7160e01b86526022600452602486fd5b818015612bad5760018114612bbe57612beb565b60ff19861689528489019650612beb565b60008b81526020902060005b86811015612be35781548b820152908501908301612bca565b505084890196505b505050505050612bfb8185612b41565b95945050505050565b634e487b7160e01b600052601260045260246000fd5b600082612c2957612c29612c04565b500490565b600082821015612c4057612c40612a7e565b500390565b600060208284031215612c5757600080fd5b81516126c9816128a9565b600060208284031215612c7457600080fd5b81516126c981612754565b600060ff821660ff811415612c9657612c96612a7e565b60010192915050565b6001600160a01b0385811682528416602082015260408101839052608060608201819052600090612cd2908301846126fc565b9695505050505050565b600060208284031215612cee57600080fd5b81516126c981612693565b600082612d0857612d08612c04565b500690565b60008219821115612d2057612d20612a7e565b50019056fea2646970667358221220e985ec62d8c8e689f86c54506e2a098d917831dffe19ac5f505776c15d98e61e64736f6c634300080a0033",
  "linkReferences": {},
  "deployedLinkReferences": {}
}