{
  "_format": "hh-sol-artifact-1",
  "contractName": "CBDNFT",
  "sourceName": "src/CBDNFT.sol",
  "abi": [
    {
      "inputs": [
        {
          "internalType": "string",
          "name": "name",
          "type": "string"
        },
        {
          "internalType": "string",
          "name": "symbol",
          "type": "string"
        },
        {
          "internalType": "address",
          "name": "feeRecipient_",
          "type": "address"
        }
      ],
      "stateMutability": "nonpayable",
      "type": "constructor"
    },
    {
      "anonymous": false,
      "inputs": [
        {
          "indexed": true,
          "internalType": "address",
          "name": "owner",
          "type": "address"
        },
        {
          "indexed": true,
          "internalType": "address",
          "name": "approved",
          "type": "address"
        },
        {
          "indexed": true,
          "internalType": "uint256",
          "name": "tokenId",
          "type": "uint256"
        }
      ],
      "name": "Approval",
      "type": "event"
    },
    {
      "anonymous": false,
      "inputs": [
        {
          "indexed": true,
          "internalType": "address",
          "name": "owner",
          "type": "address"
        },
        {
          "indexed": true,
          "internalType": "address",
          "name": "operator",
          "type": "address"
        },
        {
          "indexed": false,
          "internalType": "bool",
          "name": "approved",
          "type": "bool"
        }
      ],
      "name": "ApprovalForAll",
      "type": "event"
    },
    {
      "anonymous": false,
      "inputs": [
        {
          "indexed": true,
          "internalType": "address",
          "name": "previousOwner",
          "type": "address"
        },
        {
          "indexed": true,
          "internalType": "address",
          "name": "newOwner",
          "type": "address"
        }
      ],
      "name": "OwnershipTransferred",
      "type": "event"
    },
    {
      "anonymous": false,
      "inputs": [
        {
          "indexed": true,
          "internalType": "address",
          "name": "from",
          "type": "address"
        },
        {
          "indexed": true,
          "internalType": "address",
          "name": "to",
          "type": "address"
        },
        {
          "indexed": true,
          "internalType": "uint256",
          "name": "tokenId",
          "type": "uint256"
        }
      ],
      "name": "Transfer",
      "type": "event"
    },
    {
      "inputs": [],
      "name": "USDT",
      "outputs": [
        {
          "internalType": "contract IERC20",
          "name": "",
          "type": "address"
        }
      ],
      "stateMutability": "view",
      "type": "function"
    },
    {
      "inputs": [
        {
          "internalType": "address",
          "name": "to",
          "type": "address"
        },
        {
          "internalType": "uint256",
          "name": "tokenId",
          "type": "uint256"
        }
      ],
      "name": "approve",
      "outputs": [],
      "stateMutability": "nonpayable",
      "type": "function"
    },
    {
      "inputs": [
        {
          "internalType": "address",
          "name": "adr",
          "type": "address"
        }
      ],
      "name": "authorize",
      "outputs": [],
      "stateMutability": "nonpayable",
      "type": "function"
    },
    {
      "inputs": [
        {
          "internalType": "address",
          "name": "owner",
          "type": "address"
        }
      ],
      "name": "balanceOf",
      "outputs": [
        {
          "internalType": "uint256",
          "name": "",
          "type": "uint256"
        }
      ],
      "stateMutability": "view",
      "type": "function"
    },
    {
      "inputs": [],
      "name": "baseURI",
      "outputs": [
        {
          "internalType": "string",
          "name": "",
          "type": "string"
        }
      ],
      "stateMutability": "view",
      "type": "function"
    },
    {
      "inputs": [
        {
          "internalType": "address",
          "name": "to",
          "type": "address"
        },
        {
          "internalType": "uint256",
          "name": "count",
          "type": "uint256"
        },
        {
          "internalType": "address",
          "name": "_referralAccount",
          "type": "address"
        }
      ],
      "name": "batchMint",
      "outputs": [],
      "stateMutability": "nonpayable",
      "type": "function"
    },
    {
      "inputs": [],
      "name": "currentIndex",
      "outputs": [
        {
          "internalType": "uint256",
          "name": "",
          "type": "uint256"
        }
      ],
      "stateMutability": "view",
      "type": "function"
    },
    {
      "inputs": [
        {
          "internalType": "uint256",
          "name": "tokenId",
          "type": "uint256"
        }
      ],
      "name": "getApproved",
      "outputs": [
        {
          "internalType": "address",
          "name": "",
          "type": "address"
        }
      ],
      "stateMutability": "view",
      "type": "function"
    },
    {
      "inputs": [
        {
          "internalType": "uint256",
          "name": "tokenId",
          "type": "uint256"
        }
      ],
      "name": "getOwnershipData",
      "outputs": [
        {
          "components": [
            {
              "internalType": "address",
              "name": "addr",
              "type": "address"
            },
            {
              "internalType": "uint64",
              "name": "startTimestamp",
              "type": "uint64"
            }
          ],
          "internalType": "struct ERC721A.TokenOwnership",
          "name": "",
          "type": "tuple"
        }
      ],
      "stateMutability": "view",
      "type": "function"
    },
    {
      "inputs": [
        {
          "internalType": "address",
          "name": "account",
          "type": "address"
        }
      ],
      "name": "getTokensOf",
      "outputs": [
        {
          "internalType": "uint256[]",
          "name": "",
          "type": "uint256[]"
        }
      ],
      "stateMutability": "view",
      "type": "function"
    },
    {
      "inputs": [],
      "name": "hiddenURI",
      "outputs": [
        {
          "internalType": "string",
          "name": "",
          "type": "string"
        }
      ],
      "stateMutability": "view",
      "type": "function"
    },
    {
      "inputs": [
        {
          "internalType": "address",
          "name": "owner",
          "type": "address"
        },
        {
          "internalType": "address",
          "name": "operator",
          "type": "address"
        }
      ],
      "name": "isApprovedForAll",
      "outputs": [
        {
          "internalType": "bool",
          "name": "",
          "type": "bool"
        }
      ],
      "stateMutability": "view",
      "type": "function"
    },
    {
      "inputs": [
        {
          "internalType": "address",
          "name": "adr",
          "type": "address"
        }
      ],
      "name": "isAuthorized",
      "outputs": [
        {
          "internalType": "bool",
          "name": "",
          "type": "bool"
        }
      ],
      "stateMutability": "view",
      "type": "function"
    },
    {
      "inputs": [
        {
          "internalType": "address",
          "name": "account",
          "type": "address"
        }
      ],
      "name": "isOwner",
      "outputs": [
        {
          "internalType": "bool",
          "name": "",
          "type": "bool"
        }
      ],
      "stateMutability": "view",
      "type": "function"
    },
    {
      "inputs": [
        {
          "internalType": "address",
          "name": "to",
          "type": "address"
        },
        {
          "internalType": "address",
          "name": "_referralAccount",
          "type": "address"
        }
      ],
      "name": "mint",
      "outputs": [],
      "stateMutability": "nonpayable",
      "type": "function"
    },
    {
      "inputs": [],
      "name": "mintEnabled",
      "outputs": [
        {
          "internalType": "bool",
          "name": "",
          "type": "bool"
        }
      ],
      "stateMutability": "view",
      "type": "function"
    },
    {
      "inputs": [],
      "name": "name",
      "outputs": [
        {
          "internalType": "string",
          "name": "",
          "type": "string"
        }
      ],
      "stateMutability": "view",
      "type": "function"
    },
    {
      "inputs": [],
      "name": "nextOwnerToExplicitlySet",
      "outputs": [
        {
          "internalType": "uint256",
          "name": "",
          "type": "uint256"
        }
      ],
      "stateMutability": "view",
      "type": "function"
    },
    {
      "inputs": [
        {
          "internalType": "address",
          "name": "owner",
          "type": "address"
        }
      ],
      "name": "numberMinted",
      "outputs": [
        {
          "internalType": "uint256",
          "name": "",
          "type": "uint256"
        }
      ],
      "stateMutability": "view",
      "type": "function"
    },
    {
      "inputs": [],
      "name": "owner",
      "outputs": [
        {
          "internalType": "address",
          "name": "",
          "type": "address"
        }
      ],
      "stateMutability": "view",
      "type": "function"
    },
    {
      "inputs": [
        {
          "internalType": "uint256",
          "name": "tokenId",
          "type": "uint256"
        }
      ],
      "name": "ownerOf",
      "outputs": [
        {
          "internalType": "address",
          "name": "",
          "type": "address"
        }
      ],
      "stateMutability": "view",
      "type": "function"
    },
    {
      "inputs": [],
      "name": "priceForUSDT",
      "outputs": [
        {
          "internalType": "uint256",
          "name": "",
          "type": "uint256"
        }
      ],
      "stateMutability": "view",
      "type": "function"
    },
    {
      "inputs": [],
      "name": "revealed",
      "outputs": [
        {
          "internalType": "bool",
          "name": "",
          "type": "bool"
        }
      ],
      "stateMutability": "view",
      "type": "function"
    },
    {
      "inputs": [
        {
          "internalType": "address",
          "name": "from",
          "type": "address"
        },
        {
          "internalType": "address",
          "name": "to",
          "type": "address"
        },
        {
          "internalType": "uint256",
          "name": "tokenId",
          "type": "uint256"
        }
      ],
      "name": "safeTransferFrom",
      "outputs": [],
      "stateMutability": "nonpayable",
      "type": "function"
    },
    {
      "inputs": [
        {
          "internalType": "address",
          "name": "from",
          "type": "address"
        },
        {
          "internalType": "address",
          "name": "to",
          "type": "address"
        },
        {
          "internalType": "uint256",
          "name": "tokenId",
          "type": "uint256"
        },
        {
          "internalType": "bytes",
          "name": "_data",
          "type": "bytes"
        }
      ],
      "name": "safeTransferFrom",
      "outputs": [],
      "stateMutability": "nonpayable",
      "type": "function"
    },
    {
      "inputs": [
        {
          "internalType": "address",
          "name": "operator",
          "type": "address"
        },
        {
          "internalType": "bool",
          "name": "approved",
          "type": "bool"
        }
      ],
      "name": "setApprovalForAll",
      "outputs": [],
      "stateMutability": "nonpayable",
      "type": "function"
    },
    {
      "inputs": [
        {
          "internalType": "string",
          "name": "baseURI_",
          "type": "string"
        }
      ],
      "name": "setBaseURI",
      "outputs": [],
      "stateMutability": "nonpayable",
      "type": "function"
    },
    {
      "inputs": [
        {
          "internalType": "address",
          "name": "feeRecipient_",
          "type": "address"
        }
      ],
      "name": "setFeeRecipient",
      "outputs": [],
      "stateMutability": "nonpayable",
      "type": "function"
    },
    {
      "inputs": [
        {
          "internalType": "string",
          "name": "hiddenURI_",
          "type": "string"
        }
      ],
      "name": "setHiddenURI",
      "outputs": [],
      "stateMutability": "nonpayable",
      "type": "function"
    },
    {
      "inputs": [
        {
          "internalType": "uint256",
          "name": "quantity",
          "type": "uint256"
        }
      ],
      "name": "setOwnersExplicit",
      "outputs": [],
      "stateMutability": "nonpayable",
      "type": "function"
    },
    {
      "inputs": [
        {
          "internalType": "uint256",
          "name": "_newPrice",
          "type": "uint256"
        }
      ],
      "name": "setPriceForUSDT",
      "outputs": [],
      "stateMutability": "nonpayable",
      "type": "function"
    },
    {
      "inputs": [
        {
          "internalType": "address",
          "name": "_referalAddr",
          "type": "address"
        }
      ],
      "name": "setReferral",
      "outputs": [],
      "stateMutability": "nonpayable",
      "type": "function"
    },
    {
      "inputs": [
        {
          "internalType": "address",
          "name": "_USDT",
          "type": "address"
        }
      ],
      "name": "setUSDT",
      "outputs": [],
      "stateMutability": "nonpayable",
      "type": "function"
    },
    {
      "inputs": [
        {
          "internalType": "bytes4",
          "name": "interfaceId",
          "type": "bytes4"
        }
      ],
      "name": "supportsInterface",
      "outputs": [
        {
          "internalType": "bool",
          "name": "",
          "type": "bool"
        }
      ],
      "stateMutability": "view",
      "type": "function"
    },
    {
      "inputs": [],
      "name": "symbol",
      "outputs": [
        {
          "internalType": "string",
          "name": "",
          "type": "string"
        }
      ],
      "stateMutability": "view",
      "type": "function"
    },
    {
      "inputs": [],
      "name": "toggleMinting",
      "outputs": [],
      "stateMutability": "nonpayable",
      "type": "function"
    },
    {
      "inputs": [],
      "name": "toggleRevealed",
      "outputs": [],
      "stateMutability": "nonpayable",
      "type": "function"
    },
    {
      "inputs": [
        {
          "internalType": "uint256",
          "name": "index",
          "type": "uint256"
        }
      ],
      "name": "tokenByIndex",
      "outputs": [
        {
          "internalType": "uint256",
          "name": "",
          "type": "uint256"
        }
      ],
      "stateMutability": "view",
      "type": "function"
    },
    {
      "inputs": [
        {
          "internalType": "address",
          "name": "owner",
          "type": "address"
        },
        {
          "internalType": "uint256",
          "name": "index",
          "type": "uint256"
        }
      ],
      "name": "tokenOfOwnerByIndex",
      "outputs": [
        {
          "internalType": "uint256",
          "name": "",
          "type": "uint256"
        }
      ],
      "stateMutability": "view",
      "type": "function"
    },
    {
      "inputs": [
        {
          "internalType": "uint256",
          "name": "tokenId",
          "type": "uint256"
        }
      ],
      "name": "tokenURI",
      "outputs": [
        {
          "internalType": "string",
          "name": "",
          "type": "string"
        }
      ],
      "stateMutability": "view",
      "type": "function"
    },
    {
      "inputs": [],
      "name": "totalSupply",
      "outputs": [
        {
          "internalType": "uint256",
          "name": "",
          "type": "uint256"
        }
      ],
      "stateMutability": "view",
      "type": "function"
    },
    {
      "inputs": [
        {
          "internalType": "address",
          "name": "from",
          "type": "address"
        },
        {
          "internalType": "address",
          "name": "to",
          "type": "address"
        },
        {
          "internalType": "uint256",
          "name": "tokenId",
          "type": "uint256"
        }
      ],
      "name": "transferFrom",
      "outputs": [],
      "stateMutability": "nonpayable",
      "type": "function"
    },
    {
      "inputs": [
        {
          "internalType": "address payable",
          "name": "adr",
          "type": "address"
        }
      ],
      "name": "transferOwnership",
      "outputs": [],
      "stateMutability": "nonpayable",
      "type": "function"
    },
    {
      "inputs": [
        {
          "internalType": "address",
          "name": "adr",
          "type": "address"
        }
      ],
      "name": "unauthorize",
      "outputs": [],
      "stateMutability": "nonpayable",
      "type": "function"
    },
    {
      "inputs": [],
      "name": "withdraw",
      "outputs": [],
      "stateMutability": "nonpayable",
      "type": "function"
    }
  ],
  "bytecode": "0x6080604052600f805460ff19166001179055601180546001600160a01b03191673e3fffe75c3f986fa0447c4e597838ddf06eba3f31790553480156200004457600080fd5b50604051620031913803806200319183398101604081905262000067916200029e565b825183908390620000809060019060208501906200012b565b508051620000969060029060208401906200012b565b5050506000620000ab6200012760201b60201c565b600780546001600160a01b0319166001600160a01b038316908117909155604051919250906000907f8be0079c531659141344cd1fd0a4f28419497f9722a3daafe3b4186f6b6457e0908290a3506001600955601280546001600160a01b0319166001600160a01b039290921691909117905550620003689050565b3390565b82805462000139906200032b565b90600052602060002090601f0160209004810192826200015d5760008555620001a8565b82601f106200017857805160ff1916838001178555620001a8565b82800160010185558215620001a8579182015b82811115620001a85782518255916020019190600101906200018b565b50620001b6929150620001ba565b5090565b5b80821115620001b65760008155600101620001bb565b634e487b7160e01b600052604160045260246000fd5b600082601f830112620001f957600080fd5b81516001600160401b0380821115620002165762000216620001d1565b604051601f8301601f19908116603f01168101908282118183101715620002415762000241620001d1565b816040528381526020925086838588010111156200025e57600080fd5b600091505b8382101562000282578582018301518183018401529082019062000263565b83821115620002945760008385830101525b9695505050505050565b600080600060608486031215620002b457600080fd5b83516001600160401b0380821115620002cc57600080fd5b620002da87838801620001e7565b94506020860151915080821115620002f157600080fd5b506200030086828701620001e7565b604086015190935090506001600160a01b03811681146200032057600080fd5b809150509250925092565b600181811c908216806200034057607f821691505b602082108114156200036257634e487b7160e01b600052602260045260246000fd5b50919050565b612e1980620003786000396000f3fe608060405234801561001057600080fd5b506004361061027f5760003560e01c806370a082311161015c578063c54e44eb116100ce578063e74b981b11610087578063e74b981b1461057a578063e985e9c51461058d578063ee1fe2ad146105c9578063f0b37c04146105dc578063f2fde38b146105ef578063fe9fbb801461060257600080fd5b8063c54e44eb14610518578063c87b56dd1461052b578063ce2fcfb11461053e578063d123973014610551578063d7224ba01461055e578063dc33e6811461056757600080fd5b806395d89b411161012057806395d89b41146104b15780639e5914da146104b9578063a22cb465146104cc578063b6a5d7de146104df578063b88d4fde146104f2578063bbaac02f1461050557600080fd5b806370a082311461043c5780637d55094d1461044f5780638cc54e7f146104575780638da5cb5b1461045f5780639231ab2a1461047057600080fd5b806336516d7f116101f557806350c1b923116101b957806350c1b923146103e157806351830227146103f457806355f804b3146104065780635bc020bc146104195780636352211e146104215780636c0360eb1461043457600080fd5b806336516d7f146103975780633ccfd60b146103a057806342842e0e146103a85780634bb20bc0146103bb5780634f6ccce7146103ce57600080fd5b806318160ddd1161024757806318160ddd1461032157806323b872dd1461033357806326987b60146103465780632d20fb601461034f5780632f54bf6e146103625780632f745c591461038457600080fd5b806301ffc9a71461028457806306fdde03146102ac578063081812fc146102c1578063095ea7b3146102ec5780630986b21014610301575b600080fd5b610297610292366004612728565b61062e565b60405190151581526020015b60405180910390f35b6102b461069b565b6040516102a391906127a4565b6102d46102cf3660046127b7565b61072d565b6040516001600160a01b0390911681526020016102a3565b6102ff6102fa3660046127e5565b6107bd565b005b61031461030f366004612811565b6108d5565b6040516102a3919061282e565b6000545b6040519081526020016102a3565b6102ff610341366004612872565b610a3d565b61032560005481565b6102ff61035d3660046127b7565b610a48565b610297610370366004612811565b6007546001600160a01b0391821691161490565b6103256103923660046127e5565b610adb565b61032560105481565b6102ff610c38565b6102ff6103b6366004612872565b610d45565b6102ff6103c93660046127b7565b610d60565b6103256103dc3660046127b7565b610d8f565b6102ff6103ef366004612811565b610df1565b600f5461029790610100900460ff1681565b6102ff6104143660046128b3565b610e3d565b6102ff610e73565b6102d461042f3660046127b7565b610eba565b6102b4610ecc565b61032561044a366004612811565b610f5a565b6102ff610feb565b6102b4611029565b6007546001600160a01b03166102d4565b61048361047e3660046127b7565b611036565b6040805182516001600160a01b0316815260209283015167ffffffffffffffff1692810192909252016102a3565b6102b4611053565b6102ff6104c7366004612811565b611062565b6102ff6104da366004612933565b6110ae565b6102ff6104ed366004612811565b611173565b6102ff610500366004612982565b6111c1565b6102ff6105133660046128b3565b6111fa565b6011546102d4906001600160a01b031681565b6102b46105393660046127b7565b611230565b6102ff61054c366004612a62565b61137d565b600f546102979060ff1681565b610325600e5481565b610325610575366004612811565b6114a6565b6102ff610588366004612811565b6114b1565b61029761059b366004612aa4565b6001600160a01b03918216600090815260066020908152604080832093909416825291909152205460ff1690565b6102ff6105d7366004612aa4565b6114fd565b6102ff6105ea366004612811565b61161b565b6102ff6105fd366004612811565b611666565b610297610610366004612811565b6001600160a01b031660009081526008602052604090205460ff1690565b60006001600160e01b031982166380ac58cd60e01b148061065f57506001600160e01b03198216635b5e139f60e01b145b8061067a57506001600160e01b0319821663780e9d6360e01b145b8061069557506301ffc9a760e01b6001600160e01b03198316145b92915050565b6060600180546106aa90612ad2565b80601f01602080910402602001604051908101604052809291908181526020018280546106d690612ad2565b80156107235780601f106106f857610100808354040283529160200191610723565b820191906000526020600020905b81548152906001019060200180831161070657829003601f168201915b5050505050905090565b600061073a826000541190565b6107a15760405162461bcd60e51b815260206004820152602d60248201527f455243373231413a20617070726f76656420717565727920666f72206e6f6e6560448201526c3c34b9ba32b73a103a37b5b2b760991b60648201526084015b60405180910390fd5b506000908152600560205260409020546001600160a01b031690565b60006107c882610eba565b9050806001600160a01b0316836001600160a01b031614156108375760405162461bcd60e51b815260206004820152602260248201527f455243373231413a20617070726f76616c20746f2063757272656e74206f776e60448201526132b960f11b6064820152608401610798565b336001600160a01b03821614806108535750610853813361059b565b6108c55760405162461bcd60e51b815260206004820152603960248201527f455243373231413a20617070726f76652063616c6c6572206973206e6f74206f60448201527f776e6572206e6f7220617070726f76656420666f7220616c6c000000000000006064820152608401610798565b6108d0838383611701565b505050565b6040516370a0823160e01b81526001600160a01b038216600482015260609060009030906370a0823190602401602060405180830381865afa15801561091f573d6000803e3d6000fd5b505050506040513d601f19601f820116820180604052508101906109439190612b0d565b905060008167ffffffffffffffff8111156109605761096061296c565b604051908082528060200260200182016040528015610989578160200160208202803683370190505b50905060005b82811015610a3557604051632f745c5960e01b81526001600160a01b0386166004820152602481018290523090632f745c5990604401602060405180830381865afa1580156109e2573d6000803e3d6000fd5b505050506040513d601f19601f82011682018060405250810190610a069190612b0d565b828281518110610a1857610a18612b26565b602090810291909101015280610a2d81612b52565b91505061098f565b509392505050565b6108d083838361175d565b6007546001600160a01b03163314610a725760405162461bcd60e51b815260040161079890612b6d565b60026009541415610ac55760405162461bcd60e51b815260206004820152601f60248201527f5265656e7472616e637947756172643a207265656e7472616e742063616c6c006044820152606401610798565b6002600955610ad381611a42565b506001600955565b6000610ae683610f5a565b8210610b3f5760405162461bcd60e51b815260206004820152602260248201527f455243373231413a206f776e657220696e646578206f7574206f6620626f756e604482015261647360f01b6064820152608401610798565b600080549080805b83811015610bd8576000818152600360209081526040918290208251808401909352546001600160a01b038116808452600160a01b90910467ffffffffffffffff169183019190915215610b9a57805192505b876001600160a01b0316836001600160a01b03161415610bcf5786841415610bc85750935061069592505050565b6001909301925b50600101610b47565b5060405162461bcd60e51b815260206004820152602e60248201527f455243373231413a20756e61626c6520746f2067657420746f6b656e206f662060448201526d0deeedccae440c4f240d2dcc8caf60931b6064820152608401610798565b6007546001600160a01b03163314610c625760405162461bcd60e51b815260040161079890612b6d565b60026009541415610cb55760405162461bcd60e51b815260206004820152601f60248201527f5265656e7472616e637947756172643a207265656e7472616e742063616c6c006044820152606401610798565b6002600955604051600090339047908381818185875af1925050503d8060008114610cfc576040519150601f19603f3d011682016040523d82523d6000602084013e610d01565b606091505b5050905080610ad35760405162461bcd60e51b815260206004820152601060248201526f2a3930b739b332b9103330b4b632b21760811b6044820152606401610798565b6108d0838383604051806020016040528060008152506111c1565b6007546001600160a01b03163314610d8a5760405162461bcd60e51b815260040161079890612b6d565b601055565b600080548210610ded5760405162461bcd60e51b815260206004820152602360248201527f455243373231413a20676c6f62616c20696e646578206f7574206f6620626f756044820152626e647360e81b6064820152608401610798565b5090565b6007546001600160a01b03163314610e1b5760405162461bcd60e51b815260040161079890612b6d565b601180546001600160a01b0319166001600160a01b0392909216919091179055565b6007546001600160a01b03163314610e675760405162461bcd60e51b815260040161079890612b6d565b6108d0600c838361267f565b6007546001600160a01b03163314610e9d5760405162461bcd60e51b815260040161079890612b6d565b600f805461ff001981166101009182900460ff1615909102179055565b6000610ec582611bd1565b5192915050565b600c8054610ed990612ad2565b80601f0160208091040260200160405190810160405280929190818152602001828054610f0590612ad2565b8015610f525780601f10610f2757610100808354040283529160200191610f52565b820191906000526020600020905b815481529060010190602001808311610f3557829003601f168201915b505050505081565b60006001600160a01b038216610fc65760405162461bcd60e51b815260206004820152602b60248201527f455243373231413a2062616c616e636520717565727920666f7220746865207a60448201526a65726f206164647265737360a81b6064820152608401610798565b506001600160a01b03166000908152600460205260409020546001600160801b031690565b6007546001600160a01b031633146110155760405162461bcd60e51b815260040161079890612b6d565b600f805460ff19811660ff90911615179055565b600a8054610ed990612ad2565b604080518082019091526000808252602082015261069582611bd1565b6060600280546106aa90612ad2565b6007546001600160a01b0316331461108c5760405162461bcd60e51b815260040161079890612b6d565b600d80546001600160a01b0319166001600160a01b0392909216919091179055565b6001600160a01b0382163314156111075760405162461bcd60e51b815260206004820152601a60248201527f455243373231413a20617070726f766520746f2063616c6c65720000000000006044820152606401610798565b3360008181526006602090815260408083206001600160a01b03871680855290835292819020805460ff191686151590811790915590519081529192917f17307eab39ab6107e8899845ad3d59bd9653f200f220920489ca2b5937696c31910160405180910390a35050565b6007546001600160a01b0316331461119d5760405162461bcd60e51b815260040161079890612b6d565b6001600160a01b03166000908152600860205260409020805460ff19166001179055565b6111cc84848461175d565b6111d884848484611ca8565b6111f45760405162461bcd60e51b815260040161079890612b8d565b50505050565b6007546001600160a01b031633146112245760405162461bcd60e51b815260040161079890612b6d565b6108d0600a838361267f565b606061123d826000541190565b6112805760405162461bcd60e51b81526020600482015260146024820152731d1c9bdb1b08191bd95cc81b9bdd08195e1a5cdd60621b6044820152606401610798565b600f54610100900460ff16156112eb57600c805461129d90612ad2565b151590506112ba5760405180602001604052806000815250610695565b600c6112c583611da7565b6040516020016112d6929190612bfc565b60405160208183030381529060405292915050565b600a80546112f890612ad2565b80601f016020809104026020016040519081016040528092919081815260200182805461132490612ad2565b80156113715780601f1061134657610100808354040283529160200191611371565b820191906000526020600020905b81548152906001019060200180831161135457829003601f168201915b50505050509050919050565b3332146113c35760405162461bcd60e51b815260206004820152601460248201527377686f20796f75207472796e612074726f6c6c3f60601b6044820152606401610798565b600f5460ff1661140a5760405162461bcd60e51b8152602060048201526012602482015271636f6d65206261636b20746f6d6f72726f7760701b6044820152606401610798565b6007546001600160a01b03163314611432576114328260105461142d9190612ca3565b611ea5565b61143c83836123f8565b600d546040516307543e3f60e41b81523360048201526001600160a01b03838116602483015290911690637543e3f090604401600060405180830381600087803b15801561148957600080fd5b505af115801561149d573d6000803e3d6000fd5b50505050505050565b600061069582612416565b6007546001600160a01b031633146114db5760405162461bcd60e51b815260040161079890612b6d565b601280546001600160a01b0319166001600160a01b0392909216919091179055565b3332146115435760405162461bcd60e51b815260206004820152601460248201527377686f20796f75207472796e612074726f6c6c3f60601b6044820152606401610798565b600f5460ff1661158a5760405162461bcd60e51b8152602060048201526012602482015271636f6d65206261636b20746f6d6f72726f7760701b6044820152606401610798565b6007546001600160a01b031633146115a7576115a7601054611ea5565b6115b28260016123f8565b600d546040516307543e3f60e41b81523360048201526001600160a01b03838116602483015290911690637543e3f090604401600060405180830381600087803b1580156115ff57600080fd5b505af1158015611613573d6000803e3d6000fd5b505050505050565b6007546001600160a01b031633146116455760405162461bcd60e51b815260040161079890612b6d565b6001600160a01b03166000908152600860205260409020805460ff19169055565b6007546001600160a01b031633146116905760405162461bcd60e51b815260040161079890612b6d565b6007546040516001600160a01b038084169216907f8be0079c531659141344cd1fd0a4f28419497f9722a3daafe3b4186f6b6457e090600090a36001600160a01b03166000818152600860205260409020805460ff19166001179055600780546001600160a01b0319169091179055565b60008281526005602052604080822080546001600160a01b0319166001600160a01b0387811691821790925591518593918516917f8c5be1e5ebec7d5bd14f71427d1e84f3dd0314c0f7b2291e5b200ac8c7c3b92591a4505050565b600061176882611bd1565b80519091506000906001600160a01b0316336001600160a01b0316148061179f5750336117948461072d565b6001600160a01b0316145b806117b1575081516117b1903361059b565b90508061181b5760405162461bcd60e51b815260206004820152603260248201527f455243373231413a207472616e736665722063616c6c6572206973206e6f74206044820152711bdddb995c881b9bdc88185c1c1c9bdd995960721b6064820152608401610798565b846001600160a01b031682600001516001600160a01b03161461188f5760405162461bcd60e51b815260206004820152602660248201527f455243373231413a207472616e736665722066726f6d20696e636f72726563746044820152651037bbb732b960d11b6064820152608401610798565b6001600160a01b0384166118f35760405162461bcd60e51b815260206004820152602560248201527f455243373231413a207472616e7366657220746f20746865207a65726f206164604482015264647265737360d81b6064820152608401610798565b6119036000848460000151611701565b6001600160a01b03858116600090815260046020908152604080832080546001600160801b03198082166001600160801b03928316600019018316179092558986168086528386208054938416938316600190810190931693909317909255888552600390935281842080546001600160e01b031916909117600160a01b4267ffffffffffffffff16021790559086018083529120549091166119f8576119ab816000541190565b156119f8578251600082815260036020908152604090912080549186015167ffffffffffffffff16600160a01b026001600160e01b03199092166001600160a01b03909316929092171790555b5082846001600160a01b0316866001600160a01b03167fddf252ad1be2c89b69c2b068fc378daa952ba7f163c4a11628f55a4df523b3ef60405160405180910390a45b5050505050565b80611a8f5760405162461bcd60e51b815260206004820152601860248201527f7175616e74697479206d757374206265206e6f6e7a65726f00000000000000006044820152606401610798565b600054611ad55760405162461bcd60e51b81526020600482015260146024820152731b9bc81d1bdad95b9cc81b5a5b9d1959081e595d60621b6044820152606401610798565b600e546000548110611b295760405162461bcd60e51b815260206004820152601c60248201527f616c6c206f776e657273686970732068617665206265656e20736574000000006044820152606401610798565b6000548282016000198101911015611b445750600054600019015b815b818111611bc6576000818152600360205260409020546001600160a01b0316611bbe576000611b7482611bd1565b805160008481526003602090815260409091208054919093015167ffffffffffffffff16600160a01b026001600160e01b03199091166001600160a01b0390921691909117179055505b600101611b46565b50600101600e555050565b6040805180820190915260008082526020820152611bf0826000541190565b611c4f5760405162461bcd60e51b815260206004820152602a60248201527f455243373231413a206f776e657220717565727920666f72206e6f6e657869736044820152693a32b73a103a37b5b2b760b11b6064820152608401610798565b815b6000818152600360209081526040918290208251808401909352546001600160a01b038116808452600160a01b90910467ffffffffffffffff169183019190915215611c9e579392505050565b5060001901611c51565b60006001600160a01b0384163b15611d9b57604051630a85bd0160e11b81526001600160a01b0385169063150b7a0290611cec903390899088908890600401612cc2565b6020604051808303816000875af1925050508015611d27575060408051601f3d908101601f19168201909252611d2491810190612cff565b60015b611d81573d808015611d55576040519150601f19603f3d011682016040523d82523d6000602084013e611d5a565b606091505b508051611d795760405162461bcd60e51b815260040161079890612b8d565b805181602001fd5b6001600160e01b031916630a85bd0160e11b149050611d9f565b5060015b949350505050565b606081611dcb5750506040805180820190915260018152600360fc1b602082015290565b8160005b8115611df55780611ddf81612b52565b9150611dee9050600a83612d32565b9150611dcf565b60008167ffffffffffffffff811115611e1057611e1061296c565b6040519080825280601f01601f191660200182016040528015611e3a576020820181803683370190505b5090505b8415611d9f57611e4f600183612d46565b9150611e5c600a86612d5d565b611e67906030612d71565b60f81b818381518110611e7c57611e7c612b26565b60200101906001600160f81b031916908160001a905350611e9e600a86612d32565b9450611e3e565b6011546040516370a0823160e01b815233600482015282916001600160a01b0316906370a0823190602401602060405180830381865afa158015611eed573d6000803e3d6000fd5b505050506040513d601f19601f82011682018060405250810190611f119190612b0d565b1015611f565760405162461bcd60e51b8152602060048201526014602482015273496e73756666696369656e742062616c616e636560601b6044820152606401610798565b600d5460408051636cfa825b60e01b815290516000926001600160a01b031691636cfa825b9160048083019260209291908290030181865afa158015611fa0573d6000803e3d6000fd5b505050506040513d601f19601f82011682018060405250810190611fc49190612b0d565b600d60009054906101000a90046001600160a01b03166001600160a01b03166326fe96cd6040518163ffffffff1660e01b8152600401602060405180830381865afa158015612017573d6000803e3d6000fd5b505050506040513d601f19601f8201168201806040525081019061203b9190612b0d565b6120459084612ca3565b61204f9190612d32565b9050600061205d8284612d46565b6011546012546040516323b872dd60e01b81523360048201526001600160a01b0391821660248201526044810184905292935016906323b872dd906064016020604051808303816000875af11580156120ba573d6000803e3d6000fd5b505050506040513d601f19601f820116820180604052508101906120de9190612d89565b5060006120f36007546001600160a01b031690565b905082915060005b60078160ff161015611a3b57600d54604051633b0f0f2f60e01b81523360048201526001600160a01b0390911690633b0f0f2f90602401602060405180830381865afa15801561214f573d6000803e3d6000fd5b505050506040513d601f19601f820116820180604052508101906121739190612da6565b600d546040516203066f60e71b815260ff841660048201529193506000916001600160a01b0390911690630183378090602401602060405180830381865afa1580156121c3573d6000803e3d6000fd5b505050506040513d601f19601f820116820180604052508101906121e79190612b0d565b90506000600d60009054906101000a90046001600160a01b03166001600160a01b0316636cfa825b6040518163ffffffff1660e01b8152600401602060405180830381865afa15801561223e573d6000803e3d6000fd5b505050506040513d601f19601f820116820180604052508101906122629190612b0d565b61226c8388612ca3565b6122769190612d32565b90506122828186612d46565b94506122966007546001600160a01b031690565b6001600160a01b0316846001600160a01b031614806122bc57506001600160a01b038416155b15612365576011546001600160a01b03166323b872dd336122e56007546001600160a01b031690565b6040516001600160e01b031960e085901b1681526001600160a01b03928316600482015291166024820152604481018890526064016020604051808303816000875af1158015612339573d6000803e3d6000fd5b505050506040513d601f19601f8201168201806040525081019061235d9190612d89565b505050611a3b565b6011546040516323b872dd60e01b81523360048201526001600160a01b03868116602483015260448201849052909116906323b872dd906064016020604051808303816000875af11580156123be573d6000803e3d6000fd5b505050506040513d601f19601f820116820180604052508101906123e29190612d89565b50505080806123f090612dc3565b9150506120fb565b6124128282604051806020016040528060008152506124b4565b5050565b60006001600160a01b0382166124885760405162461bcd60e51b815260206004820152603160248201527f455243373231413a206e756d626572206d696e74656420717565727920666f7260448201527020746865207a65726f206164647265737360781b6064820152608401610798565b506001600160a01b0316600090815260046020526040902054600160801b90046001600160801b031690565b6108d083838360016000546001600160a01b03851661251f5760405162461bcd60e51b815260206004820152602160248201527f455243373231413a206d696e7420746f20746865207a65726f206164647265736044820152607360f81b6064820152608401610798565b8361257d5760405162461bcd60e51b815260206004820152602860248201527f455243373231413a207175616e74697479206d75737420626520677265617465604482015267072207468616e20360c41b6064820152608401610798565b6001600160a01b03851660008181526004602090815260408083208054600160801b6001600160801b031982166001600160801b039283168c01831690811782900483168c01909216021790558483526003909152812080546001600160e01b031916909217600160a01b4267ffffffffffffffff16021790915581905b858110156126765760405182906001600160a01b038916906000907fddf252ad1be2c89b69c2b068fc378daa952ba7f163c4a11628f55a4df523b3ef908290a4831561266a5761264e6000888488611ca8565b61266a5760405162461bcd60e51b815260040161079890612b8d565b600191820191016125fb565b50600055611a3b565b82805461268b90612ad2565b90600052602060002090601f0160209004810192826126ad57600085556126f3565b82601f106126c65782800160ff198235161785556126f3565b828001600101855582156126f3579182015b828111156126f35782358255916020019190600101906126d8565b50610ded9291505b80821115610ded57600081556001016126fb565b6001600160e01b03198116811461272557600080fd5b50565b60006020828403121561273a57600080fd5b81356127458161270f565b9392505050565b60005b8381101561276757818101518382015260200161274f565b838111156111f45750506000910152565b6000815180845261279081602086016020860161274c565b601f01601f19169290920160200192915050565b6020815260006127456020830184612778565b6000602082840312156127c957600080fd5b5035919050565b6001600160a01b038116811461272557600080fd5b600080604083850312156127f857600080fd5b8235612803816127d0565b946020939093013593505050565b60006020828403121561282357600080fd5b8135612745816127d0565b6020808252825182820181905260009190848201906040850190845b818110156128665783518352928401929184019160010161284a565b50909695505050505050565b60008060006060848603121561288757600080fd5b8335612892816127d0565b925060208401356128a2816127d0565b929592945050506040919091013590565b600080602083850312156128c657600080fd5b823567ffffffffffffffff808211156128de57600080fd5b818501915085601f8301126128f257600080fd5b81358181111561290157600080fd5b86602082850101111561291357600080fd5b60209290920196919550909350505050565b801515811461272557600080fd5b6000806040838503121561294657600080fd5b8235612951816127d0565b9150602083013561296181612925565b809150509250929050565b634e487b7160e01b600052604160045260246000fd5b6000806000806080858703121561299857600080fd5b84356129a3816127d0565b935060208501356129b3816127d0565b925060408501359150606085013567ffffffffffffffff808211156129d757600080fd5b818701915087601f8301126129eb57600080fd5b8135818111156129fd576129fd61296c565b604051601f8201601f19908116603f01168101908382118183101715612a2557612a2561296c565b816040528281528a6020848701011115612a3e57600080fd5b82602086016020830137600060208483010152809550505050505092959194509250565b600080600060608486031215612a7757600080fd5b8335612a82816127d0565b9250602084013591506040840135612a99816127d0565b809150509250925092565b60008060408385031215612ab757600080fd5b8235612ac2816127d0565b91506020830135612961816127d0565b600181811c90821680612ae657607f821691505b60208210811415612b0757634e487b7160e01b600052602260045260246000fd5b50919050565b600060208284031215612b1f57600080fd5b5051919050565b634e487b7160e01b600052603260045260246000fd5b634e487b7160e01b600052601160045260246000fd5b6000600019821415612b6657612b66612b3c565b5060010190565b60208082526006908201526510a7aba722a960d11b604082015260600190565b60208082526033908201527f455243373231413a207472616e7366657220746f206e6f6e204552433732315260408201527232b1b2b4bb32b91034b6b83632b6b2b73a32b960691b606082015260800190565b60008151612bf281856020860161274c565b9290920192915050565b600080845481600182811c915080831680612c1857607f831692505b6020808410821415612c3857634e487b7160e01b86526022600452602486fd5b818015612c4c5760018114612c5d57612c8a565b60ff19861689528489019650612c8a565b60008b81526020902060005b86811015612c825781548b820152908501908301612c69565b505084890196505b505050505050612c9a8185612be0565b95945050505050565b6000816000190483118215151615612cbd57612cbd612b3c565b500290565b6001600160a01b0385811682528416602082015260408101839052608060608201819052600090612cf590830184612778565b9695505050505050565b600060208284031215612d1157600080fd5b81516127458161270f565b634e487b7160e01b600052601260045260246000fd5b600082612d4157612d41612d1c565b500490565b600082821015612d5857612d58612b3c565b500390565b600082612d6c57612d6c612d1c565b500690565b60008219821115612d8457612d84612b3c565b500190565b600060208284031215612d9b57600080fd5b815161274581612925565b600060208284031215612db857600080fd5b8151612745816127d0565b600060ff821660ff811415612dda57612dda612b3c565b6001019291505056fea264697066735822122010084beda66c1734531a85a75e171e0b4e562201fee10b7d3f4d04519afe41b564736f6c634300080a0033",
  "linkReferences": {},
  "deployedLinkReferences": {}
}