{
  "_format": "hh-sol-artifact-1",
  "contractName": "Referral",
  "sourceName": "src/Referral.sol",
  "abi": [
    {
      "inputs": [],
      "stateMutability": "nonpayable",
      "type": "constructor"
    },
    {
      "anonymous": false,
      "inputs": [
        {
          "indexed": true,
          "internalType": "address",
          "name": "previousOwner",
          "type": "address"
        },
        {
          "indexed": true,
          "internalType": "address",
          "name": "newOwner",
          "type": "address"
        }
      ],
      "name": "OwnershipTransferred",
      "type": "event"
    },
    {
      "inputs": [
        {
          "internalType": "address",
          "name": "adr",
          "type": "address"
        }
      ],
      "name": "authorize",
      "outputs": [],
      "stateMutability": "nonpayable",
      "type": "function"
    },
    {
      "inputs": [],
      "name": "getDevider",
      "outputs": [
        {
          "internalType": "uint256",
          "name": "",
          "type": "uint256"
        }
      ],
      "stateMutability": "view",
      "type": "function"
    },
    {
      "inputs": [],
      "name": "getMlmPercent",
      "outputs": [
        {
          "internalType": "uint256",
          "name": "",
          "type": "uint256"
        }
      ],
      "stateMutability": "view",
      "type": "function"
    },
    {
      "inputs": [
        {
          "internalType": "address",
          "name": "from",
          "type": "address"
        }
      ],
      "name": "getReferral",
      "outputs": [
        {
          "internalType": "address",
          "name": "",
          "type": "address"
        }
      ],
      "stateMutability": "view",
      "type": "function"
    },
    {
      "inputs": [
        {
          "internalType": "address",
          "name": "adr",
          "type": "address"
        }
      ],
      "name": "isAuthorized",
      "outputs": [
        {
          "internalType": "bool",
          "name": "",
          "type": "bool"
        }
      ],
      "stateMutability": "view",
      "type": "function"
    },
    {
      "inputs": [
        {
          "internalType": "address",
          "name": "account",
          "type": "address"
        }
      ],
      "name": "isOwner",
      "outputs": [
        {
          "internalType": "bool",
          "name": "",
          "type": "bool"
        }
      ],
      "stateMutability": "view",
      "type": "function"
    },
    {
      "inputs": [
        {
          "internalType": "uint8",
          "name": "",
          "type": "uint8"
        }
      ],
      "name": "mlmLevel",
      "outputs": [
        {
          "internalType": "uint256",
          "name": "",
          "type": "uint256"
        }
      ],
      "stateMutability": "view",
      "type": "function"
    },
    {
      "inputs": [],
      "name": "owner",
      "outputs": [
        {
          "internalType": "address",
          "name": "",
          "type": "address"
        }
      ],
      "stateMutability": "view",
      "type": "function"
    },
    {
      "inputs": [
        {
          "internalType": "uint8",
          "name": "_level",
          "type": "uint8"
        },
        {
          "internalType": "uint256",
          "name": "_percent",
          "type": "uint256"
        }
      ],
      "name": "setMlmLevelPercent",
      "outputs": [],
      "stateMutability": "nonpayable",
      "type": "function"
    },
    {
      "inputs": [
        {
          "internalType": "address",
          "name": "from",
          "type": "address"
        },
        {
          "internalType": "address",
          "name": "to",
          "type": "address"
        }
      ],
      "name": "setReferral",
      "outputs": [],
      "stateMutability": "nonpayable",
      "type": "function"
    },
    {
      "inputs": [
        {
          "internalType": "address payable",
          "name": "adr",
          "type": "address"
        }
      ],
      "name": "transferOwnership",
      "outputs": [],
      "stateMutability": "nonpayable",
      "type": "function"
    },
    {
      "inputs": [
        {
          "internalType": "address",
          "name": "adr",
          "type": "address"
        }
      ],
      "name": "unauthorize",
      "outputs": [],
      "stateMutability": "nonpayable",
      "type": "function"
    }
  ],
  "bytecode": "0x60806040526103e860055534801561001657600080fd5b50600080546001600160a01b031916339081178255604051909182917f8be0079c531659141344cd1fd0a4f28419497f9722a3daafe3b4186f6b6457e0908290a35061056f806100676000396000f3fe608060405234801561001057600080fd5b50600436106100b45760003560e01c8063887f0d0311610071578063887f0d031461016e5780638da5cb5b14610181578063b6a5d7de14610192578063f0b37c04146101a5578063f2fde38b146101b8578063fe9fbb80146101cb57600080fd5b806301833780146100b957806326fe96cd146100ec5780632f54bf6e146100f45780633b0f0f2f146101265780636cfa825b146101515780637543e3f014610159575b600080fd5b6100d96100c736600461043a565b60036020526000908152604090205481565b6040519081526020015b60405180910390f35b6004546100d9565b610116610102366004610474565b6000546001600160a01b0391821691161490565b60405190151581526020016100e3565b610139610134366004610474565b6101f7565b6040516001600160a01b0390911681526020016100e3565b6005546100d9565b61016c610167366004610491565b610251565b005b61016c61017c3660046104ca565b6102ae565b6000546001600160a01b0316610139565b61016c6101a0366004610474565b6102f3565b61016c6101b3366004610474565b610344565b61016c6101c6366004610474565b61038f565b6101166101d9366004610474565b6001600160a01b031660009081526001602052604090205460ff1690565b3360009081526001602052604081205460ff1661022f5760405162461bcd60e51b8152600401610226906104f4565b60405180910390fd5b506001600160a01b03808216600090815260026020526040902054165b919050565b3360009081526001602052604090205460ff166102805760405162461bcd60e51b8152600401610226906104f4565b6001600160a01b03918216600090815260026020526040902080546001600160a01b03191691909216179055565b3360009081526001602052604090205460ff166102dd5760405162461bcd60e51b8152600401610226906104f4565b60ff909116600090815260036020526040902055565b6000546001600160a01b0316331461031d5760405162461bcd60e51b815260040161022690610519565b6001600160a01b03166000908152600160208190526040909120805460ff19169091179055565b6000546001600160a01b0316331461036e5760405162461bcd60e51b815260040161022690610519565b6001600160a01b03166000908152600160205260409020805460ff19169055565b6000546001600160a01b031633146103b95760405162461bcd60e51b815260040161022690610519565b600080546040516001600160a01b03808516939216917f8be0079c531659141344cd1fd0a4f28419497f9722a3daafe3b4186f6b6457e091a36001600160a01b031660008181526001602081905260408220805460ff1916909117905580546001600160a01b0319169091179055565b803560ff8116811461024c57600080fd5b60006020828403121561044c57600080fd5b61045582610429565b9392505050565b6001600160a01b038116811461047157600080fd5b50565b60006020828403121561048657600080fd5b81356104558161045c565b600080604083850312156104a457600080fd5b82356104af8161045c565b915060208301356104bf8161045c565b809150509250929050565b600080604083850312156104dd57600080fd5b6104e683610429565b946020939093013593505050565b6020808252600b908201526a085055551213d49256915160aa1b604082015260600190565b60208082526006908201526510a7aba722a960d11b60408201526060019056fea264697066735822122045435f5dee77770d00ff5a088537344a188dc793b5f91846562815eede1da56f64736f6c634300080a0033",
  "linkReferences": {},
  "deployedLinkReferences": {}
}